:020000040800F2
:10000000980E002095020008DD570008051B000827
:10001000D95700089D160008A55F000800000000E1
:10002000000000000000000000000000455C000827
:10003000AD18000800000000795A00089D5D000816
:10004000AF020008AF020008AF020008055C00081C
:10005000AF020008AF02000835190008F5190008C2
:10006000191A00083D1A0008611A0008AD170008A7
:10007000BD170008CD170008DD170008ED170008B0
:10008000FD1700080D180008AF020008000000006E
:10009000000000000000000000000000851A0008B9
:1000A000AF020008AF020008AF020008AF0200086C
:1000B000395E0008AF020008AF020008AF02000876
:1000C000AF020008AF020008AF020008AF0200084C
:1000D000AF020008395F00085D5F00080000000003
:1000E00059190008655B0008AF0200080000000015
:1000F0000000000000000000000000001D180008C3
:1001000000000000AF020008AF020008AF020008C4
:1001100000000000000000000000000000000000DF
:100120002D1800083D1800084D1800085D1800083B
:100130006D18000800000000000000000000000032
:10014000000000000000000000000000AF020008F6
:100150007D1800088D1800089D180008815F0008B0
:10016000AF020008AF02000800000000000000001D
:10017000000000000000000000000000000000007F
:1001800000000000AF0200080000000000000000B6
:10019000AF02000800F002F800F06CF80AA090E846
:1001A000000C82448344AAF10107DA4501D100F032
:1001B00061F8AFF2090EBAE80F0013F0010F18BF93
:1001C000FB1A43F001031847ACD80000CCD800005C
:1001D0000A444FF0000C10F8013B13F0070408BF6D
:1001E00010F8014B1D1108BF10F8015B641E05D00B
:1001F00010F8016B641E01F8016BF9D113F0080FC0
:100200001EBF10F8014BAD1C0C1B09D16D1E58BF51
:1002100001F801CBFAD505E014F8016B01F8016B88
:100220006D1EF9D59142D6D37047000000230024FB
:1002300000250026103A28BF78C1FBD8520728BFF6
:1002400030C148BF0B607047662906F08683642979
:1002500000F07C80002070471FB506F074FB00F0B2
:1002600067FC04000020002105F09AFFE0601FBD3C
:1002700010B510BD00F07FFD1146FFF7EDFF05F052
:10028000B5FE00F09DFD03B4FFF7F2FF03BC05F0DF
:10029000AAFE00000948804709480047FEE7FEE73C
:1002A000FEE7FEE7FEE7FEE7FEE7FEE7FEE7FEE726
:1002B00004480549054A064B70470000D15D000817
:1002C0009501000898080020980E0020980A002048
:1002D000980A00200FB41CB5074B06AA7B44694658
:1002E0000090059800F0E5FB0020694600F0F4FB63
:1002F0001CBC5DF814FB0000F907000070B5044653
:1003000085690068C10601D5302600E02026C007B7
:1003100007D070BDD4E9012130469047206A401CC7
:1003200020626D1EF6D570BD70B5044685690078F3
:10033000C00707D170BDD4E9012120209047206A71
:10034000401C20626D1EF6D570BD00002DE9F04105
:100350000646002410687529314616A510D0AFF363
:100360000080002802DA404213A507E031688A07BE
:1003700001D512A502E0490704D511A5012401E029
:10038000AFF3008000210A2206F1240709E0B0FB48
:10039000F2FCB0FBF2F302FB1C003030785418463C
:1003A000491C0028F3D123462A463046BDE8F041D7
:1003B00000F011B9000000002D0000002B0000002B
:1003C000200000002DE9F0474FF0000A894604465E
:1003D000C0F820A02046E1688847002876D025286C
:1003E00006D0D4E901219047206A401C2062F1E741
:1003F000E168204600258847C4F81CA0064600276F
:10040000C4F818A02A2E09D0304605F0E5FD38B30F
:1004100004EB8708303EC8F8186019E059F8041B4F
:10042000204604EB87029161E1688847012F064668
:1004300018D1E069002820DA25F020051DE0D8F861
:10044000180000EB800006EB40003038C8F81800B8
:100450002046E1688847064605F0BEFD0028EED13B
:10046000012F0AD02E2E08D12046E16888477F1C34
:100470000646022F45F02005C4DBA069002803DAF8
:10048000404245F00105A061E80701D025F01005C4
:10049000B6B1A6F14100192802D8203645F400650E
:1004A0004A463146204625604D46FFF7CDFE58B1FD
:1004B000012806D0ED1D25F0070000F1080989E7A5
:1004C00004E005F1040985E730468AE7206ABDE8C3
:1004D000F087032A40F2308010F0030C00F0158002
:1004E00011F8013BBCF1020F624498BF11F801CB37
:1004F00000F8013B38BF11F8013BA2F1040298BF9C
:1005000000F801CB38BF00F8013B11F0030300F005
:100510002580083AC0F0088051F8043B083A51F8A9
:1005200004CBA0E80810F5E7121D5CBF51F8043BAE
:1005300040F8043BAFF30080D20724BF11F8013B21
:1005400011F801CB48BF11F8012B24BF00F8013B83
:1005500000F801CB48BF00F8012B704710B5203AD6
:10056000C0F00B80B1E81850203AA0E81850B1E86C
:100570001850A0E81850BFF4F5AF5FEA027C24BF22
:10058000B1E81850A0E8185044BF18C918C0BDE819
:1005900010405FEA827C24BF51F8043B40F8043BE2
:1005A00008BF7047D20728BF31F8023B48BF11F897
:1005B000012B28BF20F8023B48BF00F8012B7047F1
:1005C00002F0FF0343EA032242EA024200F08BBA40
:1005D0007047704770472DE9F0470D46994692469F
:1005E000044600F124080168880604D5E06921F07A
:1005F0001001216000E00120A84201DD471B00E05E
:100600000027A1697A1902EB0900081AA061207875
:10061000C00602D42046FFF771FE002608E0D4E9A8
:1006200001211AF806009047206A401C761C2062BF
:100630004E45F4DB2078C0060AD52046FFF75EFE63
:1006400006E0D4E9012130209047206A401C206256
:10065000381EA7F10107F4DC07E0D4E9012118F8FE
:1006600005009047206A401C2062281EA5F1010564
:10067000F3DC2046FFF758FE2078000602D5022062
:10068000BDE8F0870120FBE770472DE9FF4F0C46DE
:100690001E464FF0FF378BB0D2E90001DDF86080D5
:1006A0000A908A46C1F30A5505B93D46002108461D
:1006B0004FF00000BAF1000F00F4400005DA00EB43
:1006C00080004FF4400101EA50004FEA9059B9F11F
:1006D000010F00DDB9460A9850EA4A000ED044F6F0
:1006E0001050A5F2FF3545432F14B8F1000F1ED06E
:1006F0007542291E1EDDC9F100021CE0B8F1010F90
:100700004FF0000001D0302103E0F24305E0215416
:10071000401CB042FBDB30460022002121540B99E3
:10072000C1F80880C1E900200FB0BDE8F08FBD1B03
:100730006D1CDEE74A4600DA694206A800F082FA3C
:1007400006AB93E8070003AB83E8070050460A991D
:1007500000F080FB8DE80700A0F500501F380090E6
:100760000398002D0ADD42F21F014A460844002387
:1007700003A90390684600F0E9FD09E0A0F50050E8
:100780004A461F38002303A90390684600F0F3FD92
:100790008DE807000004000C03D04FF0FF30410843
:1007A00000E01046B8F1000F03D000220092154679
:1007B0001EE0751E05D400F0BFF9303262556D1E83
:1007C000F9D5B3460122084302D000227F1C04E081
:1007D0002078302801D100227F1E002A099784D07A
:1007E0001DE0112D07DA00F0A7F9303262556D1CBB
:1007F00050EA0102F5D1084302D00098C8B10EE0DA
:100800000021681E05E0235C625C63542254401E94
:10081000491C8142F7DBAB46A81B401E0990002013
:1008200004F80B000B98099AC0F80880C0E9002B67
:100830007AE711264FF0000857E72DE9F04F884678
:100840000446D21D22F0070191B0D1E90001CDE9A3
:100850000A0105F0A9FB02460B98C00F01D02D201C
:1008600007E02068810701D52B2002E0202101EA62
:10087000C000032A099001D0072A05DB0346414640
:10088000204600F09FF90BE12078800601D5E06951
:1008900000E00620B8F1650F814606D0B8F1660F7A
:1008A00018D0B8F1670F70D131E00020B9F1110F05
:1008B000009001DB112301E009F101030AAA01A95B
:1008C0000CA8FFF7E2FEDDE90C70002609F1010536
:1008D000834647E001204B4600904FF000470AAAAC
:1008E00001A90CA8FFF7D1FEDDE90DB00C995D461A
:1008F000002610B909F101000D18B9EB050003D469
:10090000C0F1FF3609F10105A5EB09002BE0B9F1B3
:10091000010F01DA4FF001090020B9F1110F009029
:10092000484601DD112300E003460AAA01A90CA8EC
:10093000FFF7ABFEDDE90C704D46002683462078BC
:1009400000070AD4AB4500DA5D4601A8012D04DD9D
:10095000411911F8011C302907D04F4502DA17F16F
:10096000040F04DA012082460FE06D1EEEE7002F2F
:1009700002DCED1B3E4403E0781CA84200DD7D1C38
:10098000B81B00F1010A4FF000472078000703D49C
:10099000AA4501DB4FF0FF3A0021B7F1004F0DF1FE
:1009A00043088DF8431024D002202B23002F01DAB6
:1009B0007F422D230A21021EA0F1010000DC5FB15D
:1009C00097FBF1FC97FBF1F201FB1C7C17460CF145
:1009D000300C08F801CDEEE7A8F101000370218882
:1009E000090501D5452100E06521A0F1010800F8C5
:1009F000011C09980FA9A1EB0807FF1D00B10120F8
:100A0000411901EBEA70A1693844081A401EA0613F
:100A10002078C00602D42046FFF770FC099828B160
:100A2000D4E901219047206A401C20622078C0064A
:100A300022D52046FFF762FC1EE0002E04DBB34502
:100A400002DD01A8805D00E03020D4E9012190475B
:100A5000206A401C2062761CAAF101005FEA000AAD
:100A60000AD100F065F8C0680168405CD4E9012152
:100A70009047206A401C2062281EA5F10105DCDC9D
:100A800007E0D4E9012118F8010B9047206A401CC7
:100A90002062381EA7F10107F3DC2046FFF744FC73
:100AA000032011B041E6000001694A1C0261087888
:100AB000704700B58FB0CDE901310021059105499E
:100AC0007944CDE9031011466846FFF77BFC0FB06F
:100AD00000BD0000E5FFFFFF0A6802F8010B0A6095
:100AE00070474FF000020429C0F0128010F0030C90
:100AF00000F01C81CCF1040CBCF1020F18BF00F80F
:100B0000012BA8BF20F8022BA1EB0C0100F00EB9BD
:100B10005FEAC17C24BF00F8012B00F8012B48BF1D
:100B200000F8012B7047000000487047340800208F
:100B3000004870475408002030B5B0F10A024FEA6F
:100B4000900E71F100034EEA817EB0EB0E0061EB76
:100B500091014FEA101E4EEA017E10EB0E0041EBB0
:100B600011114FEA102E4EEA016E10EB0E0041EB10
:100B700011214FEA104E4EEA014E10EB0E0041EBF0
:100B80001141401841F100014FEAD00040EA4170A4
:100B90004FEAD10110EB80054FEA810444EA9074DA
:100BA00044EB01046D1944EB0404521BA3414FF0C4
:100BB000000348BF0A3200D530BD401C41F100019E
:100BC00030BD00002DE9F0411F46044603260168B0
:100BD000072A01F4006004DB08B116A505E016A59C
:100BE00003E008B115A500E015A521F01000206074
:100BF000A069C01EA0610FB1401EA0612046FFF792
:100C00007DFB4FB1D4E9012138469047206A401C52
:100C10002062C01C206206E0206AFAE7D4E90121C4
:100C200015F8010B9047761EF8D22046FFF77CFBA3
:100C3000BDE8F0814E414E006E616E00494E4600A7
:100C4000696E66002DE9F047814616468AB0354840
:100C500078440DC88DE80D0032487844801C03AC00
:100C60000DC884E80D0041F69B300844372190FB05
:100C7000F1F290FBF1F5A5F1800501FB12041B3C9C
:100C800002D56442012000E00020DFF898A08046F1
:100C90000027FA44AAF1BE0A0EE0E0070AD0324665
:100CA000684607EB470101230AEB810100F063FB73
:100CB0008DE8070064107F1C002CEED1194F7F4493
:100CC000AE3F19E0E80715D007EB04100DF1180A44
:100CD00090E80E008AE80E00C068F04201D1981931
:100CE00008903246012306A903A800F044FB03AB99
:100CF00083E807006D10641C002DE3D14FF0010361
:100D000032466946B8F1000F03A802D000F01EFB7E
:100D100001E000F030FBC9E90001C9F808200AB081
:100D2000BDE8F08708CE00004FF0000200B5134682
:100D300094469646203922BFA0E80C50A0E80C50FB
:100D4000B1F12001BFF4F7AF090728BFA0E80C50AC
:100D500048BF0CC05DF804EB890028BF40F8042BA5
:100D600008BF704748BF20F8022B11F0804F18BF12
:100D700000F8012B70477546FFF7D6FEAE4605001A
:100D80006946534620F00700854618B020B5FFF7A6
:100D90008FFABDE820404FF000064FF000074FF0FB
:100DA00000084FF0000B21F00701AC46ACE8C00989
:100DB000ACE8C009ACE8C009ACE8C0098D46704792
:100DC00010B50446AFF300802046BDE81040FFF7A1
:100DD0005ABA00004FF0013C50F8042B51F8043B84
:100DE0009A4221D1A2EB0C03934313EACC1317D1FF
:100DF00050F8042B51F8043B9A4215D1A2EB0C0396
:100E0000934313EACC130BD150F8042B51F8043B55
:100E10009A4209D1A2EB0C03934313EACC13DBD023
:100E20004FF00000704700BFD01A01BAB1FA81F14B
:100E300001F0180122FA01F0CB40C1F12001DBB230
:100E4000C0B2C01A2CFA01F3D11A914311EAC311AE
:100E5000E6D170475FEA400C08BF91F0000F4FEAFF
:100E60008C234FEAC12243EA51514FEA1C5018BF6C
:100E700000F5F0404FEA300018BF41F000415FEA52
:100E80006C5C00F02980BCF1FF3F08BF40F080405F
:100E90007047130C06BF12044FF0100C4FF0000CFB
:100EA000130E04BF12020CF1080C130F04BF120141
:100EB0000CF1040C930F04BF92000CF1020CD30F41
:100EC00004BF52000CF1010C11464FF00002A0F1DA
:100ED0001F00A0EB0C00704711F0004F08BF7047D7
:100EE00031F000413FF4D5AF0B0C06BF09044FF0C1
:100EF000100C4FF0000C0B0E04BF09020CF1080C93
:100F00000B0F04BF09010CF1040C8B0F04BF890007
:100F10000CF1020CCB0F04BF49000CF1010CCCF119
:100F20002003A0EB0C0022FA03F302FA0CF241EAD0
:100F3000030100F10100704720F07F4C80EA0300BC
:100F400023F07F47ACEB070303F57C5300F0004030
:100F500003F1FF032DE980494FEA154B09B44FEA2D
:100F6000144325EA0B4E24EA03480FF2042606EB4D
:100F7000132749083E785FEA320203FB0667C7F58C
:100F8000000707FB06F64FEA54374FEAD64606F14C
:100F9000020607FB066CCCF1005C4FEA1C472CEA0A
:100FA000074C07FB06F40CFB06F504EB15464FEA6D
:100FB000961634BF00204FF000404FEAD13706FBB1
:100FC00007FC4FEA1C4C0CFB0BF7D21B03FB0CF786
:100FD00061EB07010CFB0EF7B0EB074072EB174219
:100FE0000CFB08F734BFA2EB0742B2EB074261EB00
:100FF00017414FEA0C444FEA910706FB07FC4FEA02
:101000001C4C0CFB0BF7B0EBC74072EB573203FBE9
:101010000CF734BFA2EBC742B2EBC74261EB5731CA
:101020000CFB0EF7B0EBC70072EB57720CFB08F726
:1010300034BFA2EBC702B2EBC70261EB5771039F4B
:101040004FEA816141EA921104EBCC044FEAD137B7
:101050004FEA826206FB07FC42EA90124FEA806088
:101060004FEA1C4C0CFB0BF7D21B03FB0CF761EB9C
:1010700007010CFB0EF7B0EB074072EB17420CFBBD
:1010800008F734BFA2EB0742B2EB074261EB17410E
:101090004FEA8C554FEA910704EB9C2406FB07FCB2
:1010A0004FEA1C4C0CFB0BF7B0EBC74072EB57320E
:1010B00003FB0CF734BFA2EBC742B2EBC74261EBB4
:1010C00057310CFB0EF7B0EBC70072EB57720CFBFD
:1010D00008F734BFA2EBC702B2EBC70261EB57714E
:1010E00015EB4C254FEA816141EA92114FEA826289
:1010F0004FEAD13742EA901206FB07FC44F10004A4
:101100004FEA80604FEA1C4C0CFB0BF7D21B03FB31
:101110000CF761EB07010CFB0EF7B0EB074072EB2D
:1011200017420CFB08F734BFA2EB0742B2EB0742B1
:1011300061EB174115EB1C154FEA813141EA9241F1
:101140004FEA823242EA90424FEA80304FEA0C7610
:1011500044F1000448EA03434EEA0B484FF0000E06
:10116000B2EB080C71EB030724BF624639464EEB25
:101170000E0E4FF0000B0018524149414BEB0B0B88
:10118000B2EB080C71EB03077BF1000B24BF624646
:1011900039464EEB0E0E4FF0000B001852414941FC
:1011A0004BEB0B0BB2EB080C71EB03077BF1000B65
:1011B00024BF624639464EEB0E0E51EA020718BFB5
:1011C00046F0010616EB0E7655F1000254F10001CF
:1011D00003D5BDE88901BDE80088BDE88901BDE807
:1011E0000048B619524141EB0101A3F101037047D8
:1011F00080807F7E7D7C7B7A797877767675747354
:10120000727171706F6E6E6D6C6C6B6A6A69686812
:10121000676666656464636362616160605F5F5EA8
:101220005E5D5D5C5C5B5B5A5A595958585757561E
:101230005655555554545353525252515150505083
:101240004F4F4F4E4E4D4D4D4C4C4C4B4B4B4A4AD5
:101250004A49494948484847474747464646454519
:101260004544444444434343434242424241414152
:10127000002B9C4630D477002BD01CB54FEA3707A3
:1012800003B44FF010004FF01001BAF1000F06D078
:10129000BCF1000FDCBF40F0080040F008014FF047
:1012A00000000FBCBDE810400BF1010BBBF1010FBA
:1012B00008BF5FEA170722BF12F1010211F1010115
:1012C0004FF0004143F1000300F0004043EA00000A
:1012D0007047F9D35708D0E746EA064613F1400FA6
:1012E0004FEA16461FDD13F1200FDFBF16430A46F3
:1012F000002120335B42BED0C3F1200746EA0646F8
:1013000002FA07F74FEA164646EA0706C3F1200736
:1013100022FA03F201FA07F721FA03F14FF0000372
:1013200042EA0702A7E746EA020646EA06464FEA0D
:10133000164646EA0106BCBF46EA0646360C4FF0A2
:1013400000034FF000024FF0000194E72DE9804CBC
:101350009A46934670B491E8380007C831EA400CC9
:1013600048BF34EA430C03D5FFF7E6FDFFF780FFE3
:10137000F0BCBDE8008C2DE9804C9A46934670B4D1
:1013800091E8380007C810F0804F08BF13F0804F75
:1013900003D100F005F8FFF76BFFF0BCBDE8008C4F
:1013A00020F07F4780EA030023F07F4C07EB0C031B
:1013B000A3F57C5300F00040A3F1FE0392F0000F70
:1013C00000F0B38095F0000F00F077802DE901491F
:1013D0004FEA11404FEA144621EA004800FB06FCA0
:1013E00024EA064708FB06F607FB08F800FB07F7A8
:1013F00018EB06484CEB164C4FEA124B18EB07481B
:101400004FEA15464CEB174022EA0B4E0BFB06FC4D
:1014100025EA06470EFB06F607FB0EFE0BFB07F759
:101420001EEB064E4CEB164C4FF000061EEB074E23
:101430004CEB174B18EB0B0840F1000018EB0E0BB0
:1014400058EB000840F100008F1A4FF000013CBF3C
:10145000C943661B14BFB5EB040C00213CBFC94354
:10146000F61B4FEA17444EEA8E0E27EA04454FEA70
:101470001C4704FB07622CEA074C05FB07F70CFB33
:1014800005F604FB0CFC16EB074642EB174216EB85
:101490000C4642EB1C421BEB060658EB0202414194
:1014A00046EA9E0601D5BDE80189B619524141EBD5
:1014B0000101A3F10103BDE801894FEA14454FEA98
:1014C000114724EA054621EA074C05FB07F406FB11
:1014D00007F70CFB06F105FB0CFC11EB074144EB95
:1014E00017444FEA124711EB0C4144EB1C4422EA2B
:1014F000074C05FB07F206FB07F70CFB06F605FB9E
:101500000CFC16EB074642EB174216EB0C4642EB7F
:101510001C456A1854F1000148BF7047B619524182
:1015200041EB0101A3F10103704795F0000F37D0A3
:101530004FEA11424FEA144721EA024624EA074CD7
:1015400002FB07F106FB07F70CFB06F402FB0CFCA1
:1015500014EB074441EB17414FEA154714EB0C44D9
:1015600041EB1C4125EA074C02FB07F506FB07F798
:101570000CFB06F602FB0CFC16EB074645EB174589
:1015800016EB0C4645EB1C42121951F1000148BF05
:101590007047B619524141EB0101A3F101037047B5
:1015A0004FEA14454FEA114724EA054621EA074C61
:1015B00005FB07F106FB07F70CFB06F24FF00006F0
:1015C00005FB0CFC12EB074241EB174112EB0C42FE
:1015D00051EB1C4148BF7047921841EB0101A3F148
:1015E00001037047F0B504460D4600200021092D87
:1015F00011DDE068A5F10A0606EB4607072606FAA4
:1016000007F18843A5F10A0606EB460603FA06F140
:101610000843E0600CE0206905EB4507072606FA61
:1016200007F1884305EB450603FA06F108432061FC
:10163000072A0FDA606B561E06EB86071F2606FA8E
:1016400007F18843561E06EB860605FA06F10843A5
:10165000606322E00D2A0FDA206BD61F06EB8607A7
:101660001F2606FA07F18843D61F06EB860605FA01
:1016700006F10843206310E0E06AA2F10D0606EBD4
:1016800086071F2606FA07F18843A2F10D0606EB2E
:10169000860605FA06F10843E062F0BD00BFFEE7EA
:1016A00070B504460D46002613E00B48006840F470
:1016B000806009490860284600F028F9064800685B
:1016C00040F0806004490860284600F01FF9701C53
:1016D000C6B2A642E9DB70BD1804024008B51C483A
:1016E0004088B0F5167F31DD002002F059FE012060
:1016F0004023802200210090084602F00DFE1421B4
:101700000D2002F05DFE0122124913A002F07EFFBF
:101710002321282002F054FE01220E4912A002F0DB
:1017200075FF2D21282002F04BFE0122094910A04F
:1017300002F06CFF02F080FF07E064210220FFF757
:10174000AFFF41F2883000F0E1F8F6E708BD000095
:10175000B40200202C01002052657475726E204A7C
:101760006F79737469636B00546F20486F6D650007
:10177000202E202E202E20000346501A00EE900A24
:10178000B8EEE01A00EE903AF8EE601AC1EE810A67
:101790009FED051A60EE810AB0EE600AFCEEC00A09
:1017A00010EE900AC0B270470000C84210B502485F
:1017B00000F0E3FB10BD00001060024010B50248CD
:1017C00000F0DBFB10BD00002860024010B50248AD
:1017D00000F0D3FB10BD00004060024010B502488D
:1017E00000F0CBFB10BD00005860024010B502486D
:1017F00000F0C3FB10BD00007060024010B502484D
:1018000000F0BBFB10BD00008860024010B502482C
:1018100000F0B3FB10BD0000A060024010B502480C
:1018200000F0ABFB10BD0000B860024010B50248EC
:1018300000F0A3FB10BD00001064024010B5024888
:1018400000F09BFB10BD00002864024010B5024868
:1018500000F093FB10BD00004064024010B5024848
:1018600000F08BFB10BD00005864024010B5024828
:1018700000F083FB10BD00007064024010B5024808
:1018800000F07BFB10BD00008864024010B50248E8
:1018900000F073FB10BD0000A064024010B50248C8
:1018A00000F06BFB10BD0000B86402407047000000
:1018B00010B5134800681349B0FBF1F4601EB0F195
:1018C000807F01D301200FE0601E4FF0E0214861CE
:1018D0000F214FF0FF3003F0BFFF00204FF0E02159
:1018E000886107200861002008B100BFFEE70021E1
:1018F000481E03F0B1FF01200349087010BD00002D
:10190000A000002040420F002401002000B5024644
:101910004FF47A7102FB01F000F001F800BD06E01F
:101920004FF0E021096901F4803101B1401E002827
:10193000F6D1704710B50648006800F0010028B1E4
:1019400001200349086003490968884710BD000069
:10195000143C01401001002010B52448006800F438
:10196000806030B14FF480602049086020490968E8
:1019700088471E48006800F4006030B14FF40060F2
:101980001A4908601A49096888471848006800F42D
:10199000805030B14FF480501449086014490968F0
:1019A00088471248006800F4005030B14FF40050EE
:1019B0000E4908600E49096888470C48006800F421
:1019C000804030B14FF480400849086008490968F8
:1019D00088470648006800F4004030B14FF40040EA
:1019E0000249086002490968884710BD143C01405B
:1019F0001001002010B50648006800F0020028B170
:101A000002200349086003490968884710BD0000A7
:101A1000143C01401001002010B50648006800F099
:101A2000040028B104200349086003490968884775
:101A300010BD0000143C01401001002010B5064804
:101A4000006800F0080028B1082003490860034935
:101A50000968884710BD0000143C014010010020B7
:101A600010B50648006800F0100028B110200349A6
:101A7000086003490968884710BD0000143C014014
:101A80001001002010B51D48006800F0200028B1AA
:101A900020201A4908601A490968884717480068D1
:101AA00000F0400028B1402014490860144909683A
:101AB00088471248006800F0800028B180200F4954
:101AC00008600F49096888470C48006800F4807076
:101AD00030B14FF4807009490860094909688847A6
:101AE0000648006800F4007030B14FF400700349FC
:101AF000086003490968884710BD0000143C014094
:101B00001001002000BFFEE770B50246002500234B
:101B100000240026938A03F0020010B923F010007D
:101B200008B1148B01E0002070BD240443EA0400D6
:101B300020F07F4505EA0100884201D1012600E03E
:101B400000263046F0E70FB41CB503200021CDE994
:101B50000010BDF81C1000230122069800F0E8FBDD
:101B600003200021CDE90010BDF81410002301224C
:101B7000049800F0DDFB03200021CDE90010BDF842
:101B8000241000231A46089800F0D2FB1CBC5DF814
:101B900014FB0FB470B504988069BDF8141040EAC6
:101BA00001400499886104988069BDF814100843C5
:101BB00004998861002521E06006040E08980069F8
:101BC000BDF82410084008B1012000E0002008B151
:101BD00044F0010406988069BDF81C10084306997A
:101BE00088610120FFF79BFE06988069BDF81C10F4
:101BF00040EA014006998861681C45B2082DDBDB8C
:101C0000204670BC5DF814FB2DE9F04106460D46F8
:101C1000012700240FE00120A040284000B908E07F
:101C20003A46791CCFB2072321463046FFF7DAFC4B
:101C300000BF601CC4B2132CEDDBBDE8F0810000D6
:101C40002DE9F04704460E4617461D46DDE9088992
:101C50003946304600F0C0F85648844208D156480C
:101C6000006840F48070544908606068606016E065
:101C70005248844208D15048006840F400704E49F0
:101C80000860606860600AE04D48844207D14A48B5
:101C9000006840F4806048490860606860604948B6
:101CA0000068494908434349C1F8040345480068AE
:101CB000C1F8040343480068C1F804030846D0F89B
:101CC000040340F48030C1F804030846D0F804034C
:101CD00040F440703B49086060683C4908406060DF
:101CE000606840F480706060A06839490840A06076
:101CF000A06840F00200A060A068A060A068A0609A
:101D0000A068A060A06840F48070A060A06840F463
:101D10008060A060A06840F40070A060E16A681E66
:101D200041EA0050E06239462046FFF76DFFA068A7
:101D300040F00100A060A06840F08040A0601E4814
:101D40001438006840F480001B49143908602148A9
:101D5000C0F80090001FC0F80080001F0560001F41
:101D600000681C490C39086008460068086008468D
:101D7000006808600846006840F480600860084613
:101D8000006840F4006008600846006840F40050B5
:101D900008600846006840F48070086008460068E3
:101DA00040F4003008600846006840F00100086018
:101DB000BDE8F08700200140443802400021014086
:101DC0000022014004230140E030FCFFFFFEFFFC45
:101DD000FDF7FFC01C6402407CB504460D4601209F
:101DE000022100230322CDE900102946204600F0FD
:101DF0009FFA7CBD7CB504460E46154601200A219B
:101E00006823324ACDE900103146204602F021F91C
:101E1000601CC4B2B01CC6B2322D1EDD0120009081
:101E2000A5F1320082B20523314604F1320002F0FE
:101E30004EF90020C5F164018AB261190090481C76
:101E40000523314602F043F90020052331223146B3
:101E50000090204602F03BF937E0322D1BDA0120DA
:101E6000C5F133018AB2009060190523314602F0B2
:101E70002EF9002005232A4631460090204602F024
:101E800026F90020052332223146009004F1330068
:101E900002F01DF919E001200523024631460090A9
:101EA00004F1320002F013F90020052331223146FB
:101EB0000090204602F00BF9002005233122314624
:101EC000009004F1330002F002F97CBD0ED9000845
:101ED0007047000030B502460B460E4CA24207D2B6
:101EE0000D490D4C0834141B1825B4FBF5F006E021
:101EF00008490839074C141B1825B4FBF5F00428D1
:101F000001D3091D001F03F03D04044D2D5CAC40BE
:101F10000C6030BD10640240086002405E69000839
:101F20007047704770B502460023002500240F4813
:101F3000824207D20E4D0E481030101A1826B0FB00
:101F4000F6F306E0094D103D0848101A1826B0FBBC
:101F5000F6F3042B01D32D1D1B1F2C680548C05C14
:101F6000C44004F03D040C40084670BD10640240BB
:101F7000006002405E690008704770B504463D216C
:101F80002046FFF7CFFF85B23D212046FFF7A2FF95
:101F900005F0200030B1206800F0100010B120469C
:101FA00000F029F805F0100030B1206800F00800BA
:101FB00010B12046FFF7E0FF05F0080030B12068BF
:101FC00000F0040010B1204600F016F805F00400FF
:101FD00030B1206800F0020010B12046FFF7A0FFEA
:101FE00005F0010030B1606900F0800010B12046BA
:101FF000FFF797FF70BD70477047000011B544F6BA
:10200000206403E0601E041E00D118BD2F48006844
:1020100000F48030B0F5803F01D1002CF2D12B4884
:10202000001D006800F00040B0F1004F01D100F049
:1020300063F82648001D006840F400702349091D1C
:1020400008600846006840F002000860009800F050
:10205000BFF91E49091D096841EAC0001B49091D55
:1020600008600846006840F48030086044F6206448
:1020700003E0601E041E00D1C7E71448006800F4A6
:102080008030B0F5803F01D1002CF2D10F480068BC
:1020900000F0010028B10D48006820F001000B4954
:1020A00008600A48001D006800F002000749091D89
:1020B00008600846006800F4803008600846006840
:1020C00040F00040086001209FE700000C3C024007
:1020D00007B50B46002103B10AB900200EBD00214F
:1020E00005E0009850F8210043F82100491C914276
:1020F000F7D30120F2E700000248034908600348D3
:102100000860704723016745043C0240AB89EFCD6E
:1021100037B50C461546002244F6206304B10DB9CC
:1021200000203EBD03E0581E031E00D1F9E72448FD
:10213000006800F48030B0F5803F01D1002BF2D16F
:102140001F48001D006800F00040B0F1004F01D1B1
:10215000FFF7D2FF1A48001D006840F400701849CC
:10216000091D08600846006840F001000860002270
:1021700005E054F82200009941F82200521CAA42BE
:10218000F7D344F6206303E0581E031E00D1C8E7CE
:102190000B48006800F48030B0F5803F01D1002B7F
:1021A000F2D10748001D006800F001000449091D34
:1021B00008600846006840F0004008600120B0E771
:1021C0000C3C02402DE9F04304460E461546DDE97D
:1021D0000789204600F094F8C7B2002243E00120AE
:1021E0009040304000B93CE0214830F81700012110
:1021F000914008431E4921F81700E0684FEA420C5D
:10220000032101FA0CF18843510008FA01F1084357
:10221000E06020684FEA420C032101FA0CF1884388
:10222000510005FA01F108432060012D01D0022D73
:1022300016D161680120904080B221EA000003FAC3
:1022400002F189B208436060A0684FEA420C0321A2
:1022500001FA0CF18843510009FA01F10843A0602A
:1022600000BF501CC2B2102AB9DBBDE8F0830000E9
:102270004403002000B503461948834202D100F010
:1022800047F82BE01748834202D100F041F825E0DF
:102290001548834202D100F03BF81FE01348834207
:1022A00002D100F035F819E01148834202D100F064
:1022B0002FF813E00F48834202D100F029F80DE017
:1022C0000D48834202D100F023F807E00B48834217
:1022D00002D100F01DF801E0002000BD0120FCE764
:1022E000000002400004024000080240000C0240CE
:1022F000001002400014024000180240001C02407E
:1023000001464FF40030081AC0F38F2070470000D8
:1023100000B502461046FFF7F3FF012101FA00F075
:102320000249096808430149086000BD303802408D
:102330002DE9FC4304460D4616461F46DDE9098992
:102340002046FFF797FF08B9BDE8FC833B463246BD
:1023500029462046CDE90089FFF734FF00BFF3E7A7
:102360002DE9FC4705460E4617469846DDE90A9AD0
:102370002846FFF77FFF08B9BDE8FC8700241AE074
:102380000120A040304000B914E0E10805F1200030
:1023900050F821006107CA0E0F2191408843610760
:1023A000C90E0AFA01F10843E20805F1200141F8DB
:1023B000220000BF641C102CE2D33B4602223146AF
:1023C0002846CDE90089FFF7FDFE00BFD4E70000F5
:1023D00001B500200099B1F1006F04D3284A00999B
:1023E000914200D24BE0264A521C0099914205D3FB
:1023F000244A0099914201D2012040E0214A521C16
:102400000099914205D3204A0099914201D20220BD
:1024100035E01D4A521C0099914205D31B4A009990
:10242000914201D203202AE0184A521C009991429D
:1024300005D3174A0099914201D204201FE0144AA3
:10244000521C0099914205D3124A0099914201D23F
:10245000052014E00F4A521C0099914205D30E4A00
:102460000099914201D2062009E00B4A521C0099C2
:10247000914204D3094A0099914200D2072008BD35
:10248000FF3F0008FF7F0008FFBF0008FFFF0008B4
:10249000FFFF0108FFFF0308FFFF0508FFFF070814
:1024A0001CB504464CB9042001210B460A46CDE96F
:1024B0000010C0211148FFF753FF012C0AD104205E
:1024C00001210B460A46CDE900104FF440710B483C
:1024D000FFF746FF022C0AD1042001210B460A46D1
:1024E000CDE900104FF410710448FFF739FF032CB9
:1024F00003D10421024800F04DF91CBD0004024044
:10250000005400401CB5044654B9042001210B4678
:102510000A46CDE900104FF440611148FFF720FF53
:10252000012C09D1042001210B460A46CDE90010F7
:1025300003210C48FFF714FF022C09D104200121CC
:102540000B460A46CDE9001030210748FFF708FF87
:10255000032C03D10421054800F01CF91CBD000028
:102560000004024000140240001C024000580040D9
:102570001CB504469CB9042001210B460A46CDE94E
:10258000001081011048FFF7EBFE042001210B46EB
:102590000A46CDE90010C1010C48FFF7E1FE012C0D
:1025A0000AD1042001210B460A46CDE900104FF460
:1025B000C0710748FFF7D4FE032C03D1042105485E
:1025C00000F0E8F81CBD00000000024000080240D6
:1025D000001C0240005C004030B50B4600213B4A25
:1025E000904200D108E03A4A904201D1012103E033
:1025F000384A904200D10221374A52F821209A42AB
:1026000003D9354A42F8213000E030BD82884FF6C8
:10261000C07422408280828842F02A02828002882E
:102620004FF6FE74224002802B4A52F821202B4C98
:10263000A2420BD1284A52F821205200284CB4FB68
:10264000F2F2848B224382832B220284224A52F8A4
:102650002120244CA2420BD01F4A52F82120224CA8
:10266000A24205D01C4A52F82120204CA24217D188
:10267000194C54F8214004EBC40505EB0414184D23
:10268000B5FBF4F4A2B242F48042C2F30B040CB9DD
:1026900042F0010242F4004484830224048400BF17
:1026A000028842F00102028002884FF6F53422408F
:1026B00002800288028002880280028942F48042FD
:1026C00002810289028100BF9FE7000000540040A0
:1026D00000580040005C004004010020A08601007A
:1026E00080DE8002801A060040420F0040E1330085
:1026F00070B504460D4616462248844212D122483F
:10270000006840F40010204908602846FFF7C8FE22
:1027100020884FF6FE710840208031462046FFF7A2
:102720005BFF2AE01948844212D11748006840F440
:102730008000154908602846FFF7E4FE20884FF620
:10274000FE710840208031462046FFF745FF14E027
:102750000F48844211D10C48006840F400000A4937
:1027600008602846FFF704FF20884FF6FE710840F6
:10277000208031462046FFF72FFF208840F00100DF
:10278000208070BD00540040403802400058004096
:10279000005C0040704700002DE9F04104460D4602
:1027A00016461F46208840F48070208041F2883011
:1027B0002A49086008E029480068401E2749086047
:1027C00010B90120BDE8F081A08A00F0010018B91D
:1027D000224800680028EED127B1208840F48060AC
:1027E000208003E0208820F480602080C6B925F096
:1027F0000100208241F288301849086007E017483C
:102800000068401E1549086008B90120DAE7A08A6F
:1028100000F00200F8B9114800680028EFD11AE072
:10282000012E18D145F00100208241F288300B4979
:10283000086007E009480068401E0849086008B9B8
:102840000120BFE706492046FFF75EF918B90348A3
:1028500000680028EED1208B0020B3E700010020A3
:1028600002000300014641F288300E4A106007E082
:102870000C480068401E0B4A106008B901207047E0
:10288000888A00F0800018B1888A00F0040018B926
:10289000044800680028EBD1088840F400700880E4
:1028A0000020ECE7000100202DE9F04106460F462C
:1028B00014461D4600231A4639463046FFF76CFF82
:1028C0002146304600F00AF82946304600F006F866
:1028D0003046FFF7C7FFBDE8F081000041F28832C3
:1028E000084B1A6004E0074A1268521E054B1A6032
:1028F000828A02F080021AB9024A1268002AF2D1D2
:1029000001827047000100202DE9F04106460F4684
:1029100015461C46DDF8188000231A463946304615
:10292000FFF73AFF29463046FFF7D8FF04E014F8D6
:10293000011B3046FFF7D2FFB8F10000A8F10101FA
:102940001FFA81F8F3D13046FFF78CFFBDE8F08124
:10295000F8B506460F461546072D2ED2DFE805F0DE
:102960002D042E5882ACD6007E48008840F21271A9
:1029700088420BDD64207B4900900888322340F6B2
:102980008E5240F2127103F0F1FBC4B27548008818
:1029900040F2127188420BDA3220724900900888A6
:1029A000002340F212724FF4E17103F0DFFBC4B276
:1029B000224639463046FFF71DFAD1E06948408883
:1029C00040F2127188420BDD64206649009048880D
:1029D000322340F68E5240F2127103F0C7FBC4B2AC
:1029E0006048408840F2127188420BDA32205D491B
:1029F00000904888002340F212724FF4E17103F016
:102A0000B5FBC4B2224639463046FFF7F3F9A7E0DA
:102A10005448808840F2127188420BDD642051498D
:102A200000908888322340F68E5240F2127103F0F3
:102A30009DFBC4B24B48808840F2127188420BDA89
:102A40003220484900908888002340F212724FF4E7
:102A5000E17103F08BFBC4B2224639463046FFF7E2
:102A6000C9F97DE03F48C08840F2127188420BDD11
:102A700064203C490090C888322340F68E5240F2D0
:102A8000127103F073FBC4B23648C08840F2127171
:102A900088420BDA322033490090C888002340F284
:102AA00012724FF4E17103F061FBC4B22246394661
:102AB0003046FFF79FF953E02A48008940F212712F
:102AC00088420BDD6420274900900889322340F6B4
:102AD0008E5240F2127103F049FBC4B221480089C2
:102AE00040F2127188420BDA32201E4900900889A8
:102AF000002340F212724FF4E17103F037FBC4B2CD
:102B0000224639463046FFF775F929E015484089D5
:102B100040F2127188420BDD64201249009048890E
:102B2000322340F68E5240F2127103F01FFBC4B202
:102B30000C48408940F2127188420BDA3220094970
:102B400000904889002340F212724FF4E17103F0C3
:102B50000DFBC4B2224639463046FFF74BF900BFA1
:102B600000BFF8BDB40200200FB402988069BDF820
:102B70000C1008430299886104B070470FB40298A2
:102B80008069BDF80C1040EA01400299886104B0E8
:102B900070470FB404988069BDF814100843049975
:102BA000886104B070470FB404988069BDF81410B0
:102BB00040EA01400499886104B070470FB430B511
:102BC0008BB018A5052030211822CDE906150890F4
:102BD00012A96846FDF7C2FC0EA80FC800F0B1FEAE
:102BE000052009A91022CDE906210890182212A972
:102BF0006846FDF7B3FC0EA80FC800F00BFB0024DD
:102C00000CE015F8011B09A8005D814204D00020EA
:102C10000BB030BC5DF814FB601CC4B2052CF0DBBB
:102C20000120F5E76E524632340000000FB410B5B3
:102C300088B0072018220EA906906846FDF78EFC82
:102C40000AA80FC800F08EFB044644F07004072069
:102C500018220EA9CDE906046846FDF77FFC0AA8F4
:102C60000FC800F0BCFE08B010BC5DF814FB0FB438
:102C700030B589B0169C052C0DDD002001211822ED
:102C8000CDE9061010A96846FDF768FC0CA80FC82E
:102C900000F0A5FE1AE00120182210A9069068464F
:102CA000FDF75CFC0CA80FC800F05CFB054601209A
:102CB000A04085430120182210A9CDE906056846E9
:102CC000FDF74CFC0CA80FC800F089FE09B030BC21
:102CD0005DF814FB0FB400B589B0FF20E221182283
:102CE000CDE906100EA96846FDF738FC0AA80FC802
:102CF00000F075FE09B05DF814FB0FB400B589B0A3
:102D0000FF20E1211822CDE906100EA96846FDF743
:102D100025FC0AA80FC800F062FE09B05DF814FB9C
:102D20000FB410B588B018220EA96846FDF716FC3E
:102D30000AA80FC8FFF737FF602018220EA90690D7
:102D40006846FDF70BFC0AA80FC800F087F9FF20C2
:102D500018220EA906906846FDF700FC0AA80FC8C5
:102D600000F07CF9044618220EA96846FDF7F6FB30
:102D70000AA80FC8FFF70DFF204608B010BC5DF889
:102D800014FB0FB400B587B0072018220CA90690D9
:102D90006846FDF7E3FB08A80FC800F0E3FA07B0A8
:102DA0005DF814FB0FB400B587B0172018220CA9EA
:102DB00006906846FDF7D2FB08A80FC800F0D2FACB
:102DC00000F0030007B05DF814FB0FB400B589B044
:102DD00003200121CDE90010BDF83C1000230122A1
:102DE0000E98FFF7A5FA03200121CDE90010BDF8E8
:102DF0003410002301220C98FFF79AFA9DF82C104A
:102E00000A9800F0E7FF082000211822CDE90610FB
:102E10000EA96846FDF7A2FB0AA80FC800F0DFFD67
:102E20003F2001211822CDE906100EA96846FDF7C2
:102E300095FB0AA80FC800F0D2FD3F2002211822FE
:102E4000CDE906100EA96846FDF788FB0AA80FC851
:102E500000F0C5FD0320069018220EA907906846D1
:102E6000FDF77CFB0AA80FC800F0B9FD0320042180
:102E70001822CDE906100EA96846FDF76FFB0AA8D7
:102E80000FC800F0ACFD022005211822CDE9061084
:102E90000EA96846FDF762FB0AA80FC800F09FFD67
:102EA0000E2006211822CDE906100EA96846FDF76E
:102EB00055FB0AA80FC800F092FD00200721182238
:102EC000CDE906100EA96846FDF748FB0AA80FC811
:102ED00000F085FD002011211822CDE906100EA971
:102EE0006846FDF73BFB0AA80FC800F078FD0020FC
:102EF00012211822CDE906100EA96846FDF72EFB17
:102F00000AA80FC800F06BFD002013211822CDE99C
:102F100006100EA96846FDF721FB0AA80FC800F0AD
:102F20005EFD002014211822CDE906100EA9684686
:102F3000FDF714FB0AA80FC800F051FD0020152171
:102F40001822CDE906100EA96846FDF707FB0AA86E
:102F50000FC800F044FD002016211822CDE906100C
:102F60000EA96846FDF7FAFA0AA80FC800F037FD67
:102F700000201C211822CDE906100EA96846FDF795
:102F8000EDFA0AA80FC800F02AFD00201D21182222
:102F9000CDE906100EA96846FDF7E0FA0AA80FC8A9
:102FA00000F01DFD18220EA96846FDF7D7FA0AA801
:102FB0000FC8FFF78FFE18220EA96846FDF7CEFA5C
:102FC0000AA80FC8FFF799FE18220EA96846FDF758
:102FD000C5FA0AA80FC8FFF729FE18220EA96846ED
:102FE000FDF7BCFA0AA80FC8FFF7D3FD18220EA9F7
:102FF0006846FDF7B3FA0AA80FC8FFF7BFFD09B08E
:103000005DF814FB0FB400B587B018220CA9684610
:10301000FDF7A4FA08A80FC8FFF7B0FD18220CA905
:103020006846FDF79BFA08A80FC8FFF766FE18224E
:103030000CA96846FDF792FA08A80FC8FFF7F6FD3D
:10304000002018220CA906906846FDF787FA08A808
:103050000FC800F083FA07B05DF814FB0FB410B589
:103060000C9C21460298038803F040030BB900230F
:1030700018E000BF038903F00303002BFAD0038993
:1030800003F08003002BF5D1818100BF038903F099
:103090000303002BFAD0038903F08003002BF5D142
:1030A0008389DBB21A46104610BC5DF814FB0FB4DE
:1030B00010B58CB000200A900B90052009900020DC
:1030C000182212A906906846FDF748FA0EA80FC804
:1030D00000F069FA052000210122CDE906210890BF
:1030E000182212A96846FDF739FA0EA80FC800F099
:1030F00095FA0220182212A906906846FDF72EFACA
:103100000EA80FC800F04FFA58E0182212A968461E
:10311000FDF724FA0EA80FC8FFF744FE01284DD092
:1031200009A80AA91822CDE9061012A96846FDF7D8
:1031300015FA0EA80FC800F0A6F80446182212A926
:103140006846FDF70BFA0EA80FC8FFF76FFD9DF854
:103150002800AA2831D1182212A96846FDF7FEF9E5
:103160000EA80FC8FFF74EFFF0208DF828009DF83D
:1031700024000AA91822CDE9061012A96846FDF715
:10318000EDF90EA80FC800F074FB9DF824000AA901
:103190001822CDE9061012A96846FDF7DFF90EA83E
:1031A0000FC800F066FB182212A96846FDF7D6F991
:1031B0000EA80FC8FFF726FF01E000BFA5E700BF7C
:1031C0000020182212A906906846FDF7C7F90EA83C
:1031D0000FC800F0E8F99DF8500000210122CDE968
:1031E00006210890182212A96846FDF7B7F90EA823
:1031F0000FC800F013FA0220182212A906906846A0
:10320000FDF7ACF90EA80FC800F0CDF90CB010BC5A
:103210005DF814FB0FB470B588B0DDE91746169D54
:10322000182210A96846FDF799F90CA80FC8FFF7F6
:10323000BAFC182210A968460695FDF78FF90CA86C
:103240000FC8FFF70BFF0CE0FF20182210A9069013
:103250006846FDF783F90CA80FC8FFF7FFFE04F8D6
:10326000010B301EA6F10101CEB2EDD1182210A93A
:103270006846FDF773F90CA80FC8FFF78AFC08B081
:1032800070BC5DF814FB0FB430B589B0DDE91645AC
:103290000020182210A9CDE9064508906846FDF7E0
:1032A0005DF90CA80FC800F005F809B030BC5DF856
:1032B00014FB00000FB4F0B589B0DDE91947189E82
:1032C0000720182212A906906846FDF747F90EA8B4
:1032D0000FC800F047F8C0F34205062D3BDAC7B12E
:1032E000182212A96846FDF739F90EA80FC8FFF792
:1032F00017FD20702078202818DD0020207018226B
:1033000012A96846FDF72AF90EA80FC8FFF7E2FCDC
:103310000CE01348405D182212A906906846FDF79C
:103320001DF90EA80FC800F01DF82070207868B1B4
:10333000207861211822CDE90616089012A9684666
:10334000FDF70CF90EA80FC8FFF764FF284609B077
:10335000F0BC5DF814FB00202070FF20F7E70000B0
:10336000869100080FB430B587B0149C18220EA9BE
:103370006846FDF7F3F80AA80FC8FFF714FC04F03D
:103380001F0018220EA906906846FDF7E7F80AA864
:103390000FC8FFF763FEFF2018220EA906906846AB
:1033A000FDF7DCF80AA80FC8FFF758FE05461822FB
:1033B0000EA96846FDF7D2F80AA80FC8FFF7E9FB87
:1033C000284607B030BC5DF814FB00000FB470B5A0
:1033D00088B0DDE91645072C5AD2DFE804F005066F
:1033E0004748494A040000BF00BF0320182210A923
:1033F00006906846FDF7B2F80CA80FC8FFF7B2FFB9
:10340000401CC6B23544182210A96846FDF7A6F83C
:103410000CA80FC8FFF7C7FB2048005D40F0200054
:10342000182210A906906846FDF798F80CA80FC856
:10343000FFF714FE00BF15F80109182210A9069025
:103440006846FDF78BF80CA80FC8FFF707FE301E83
:10345000A6F10101CEB2EED1182210A96846FDF7FF
:103460007DF80CA80FC8FFF794FB12E000BF00BF67
:1034700000BF28780949095D1822CDE9061010A976
:103480006846FDF76BF80CA80FC800F0A8FA00E03A
:1034900000BF00BF08B070BC5DF814FB8C91000841
:1034A0000FB410B588B0149CA01EC0B2032118221E
:1034B000CDE906100EA96846FDF750F80AA80FC816
:1034C00000F08DFA08B010BC5DF814FB0FB430B5F5
:1034D00089B0169D0020182210A906906846FDF7B5
:1034E0003DF80CA80FC8FFF73DFF044624F00C047C
:1034F00005F00C0004430020182210A9CDE90604B1
:103500006846FDF72BF80CA80FC800F068FA09B060
:1035100030BC5DF814FB0FB430B589B0169D0620A1
:10352000182210A906906846FDF718F80CA80FC8D5
:10353000FFF718FF044624F028042C430620182225
:1035400010A9CDE906046846FDF708F80CA80FC8D5
:1035500000F045FA09B030BC5DF814FB0FB430B58B
:1035600089B0169D0020182210A906906846FCF725
:10357000F5FF0CA80FC8FFF7F5FE044624F0010480
:1035800005F0010004430020182210A9CDE906042B
:103590006846FCF7E3FF0CA80FC800F020FA09B05A
:1035A00030BC5DF814FB0FB430B589B0169D002017
:1035B000182210A906906846FCF7D0FF0CA80FC887
:1035C000FFF7D0FE0446022D02D144F0020401E0D0
:1035D00024F002040020182210A9CDE90604684650
:1035E000FCF7BCFF0CA80FC800F0F9F909B030BC1B
:1035F0005DF814FB0FB410B588B0149C0520182298
:103600000EA9CDE906046846FCF7A8FF0AA80FC872
:1036100000F0E5F908B010BC5DF814FB0FB4F0B58C
:1036200089B018ACD0CC0220182212A906906846A6
:10363000FCF794FF0EA80FC8FFF794FE0121A140EC
:10364000084300F03F050220182212A9CDE9060523
:103650006846FCF783FF0EA80FC800F0C0F907F01A
:103660003F001949095D1822CDE9061012A96846E4
:10367000FCF774FF0EA80FC800F0B1F90120182262
:1036800012A906906846FCF769FF0EA80FC8FFF75D
:1036900069FE0546012E04D10120A0402843C5B291
:1036A00002E00120A04085430120182212A9CDE9A3
:1036B00006056846FCF752FF0EA80FC800F08FF908
:1036C00009B0F0BC5DF814FB869100080FB430B56A
:1036D00089B0169D0620182210A906906846FCF7AE
:1036E0003DFF0CA80FC8FFF73DFE044624F006047A
:1036F0002C430620182210A9CDE906046846FCF7E1
:103700002DFF0CA80FC800F06AF909B030BC5DF8B5
:1037100014FB10B594B00446282221460AA8FCF7F1
:103720001DFF9DF84D0008B114B010BDFF201822F8
:103730000EA906906846FCF711FF0AA80FC8FFF70C
:1037400096FA9DF83E0018220EA906906846FCF7EE
:1037500005FF0AA80FC8FFF74DFF9DF83F0018228C
:103760000EA906906846FCF7F9FE0AA80FC8FFF7F5
:10377000D2FE0C2018220EA906906846FCF7EEFE39
:103780000AA80FC8FFF7A2FE9DF8420018220EA952
:1037900006906846FCF7E2FE0AA80FC8FFF780FE15
:1037A0000DF1430006211822CDE906100EA9684646
:1037B000FCF7D4FE0AA80FC8FFF708FE0DF143007E
:1037C00000211822CDE906100EA96846FCF7C6FEB6
:1037D0000AA80FC8FFF7FAFD12A801211822CDE9A7
:1037E00006100EA96846FCF7B9FE0AA80FC8FFF735
:1037F000EDFD9DF8400000210122CDE90621089051
:1038000018220EA96846FCF7A9FE0AA80FC8FFF700
:1038100005FF9DF8410018220EA906906846FCF7A6
:103820009DFE0AA80FC8FFF751FF002018220EA91D
:1038300006906846FCF792FE0AA80FC8FFF78EFEB6
:1038400018220EA96846FCF789FE0AA80FC8FFF7E0
:10385000EDF9022018220EA906906846FCF77EFEBC
:103860000AA80FC8FFF79FFE012084F8250000BFBB
:103870005AE70FB470B58AB0DDE918564FF6FF70FD
:103880000990182212A96846FCF768FE0EA80FC816
:10389000FFF774F9182212A96846CDE90656FCF71D
:1038A0005DFE0EA80FC800F084F8182212A9684621
:1038B000FCF754FE0EA80FC8FFF756F900BF1822F8
:1038C00012A96846FCF74AFE0EA80FC8FFF759FA7E
:1038D000044604F0300000B104E00998411E09914B
:1038E0000028ECD100BF182212A96846FCF736FE6A
:1038F0000EA80FC8FFF742F9099820B902200AB0B4
:1039000070BC5DF814FB182212A96846FCF726FE6D
:103910000EA80FC8FFF78AF904F0100008B10320C1
:10392000EDE704F0200008B10120E8E7182212A911
:103930006846FCF713FE0EA80FC8FFF7DEF900205B
:10394000DDE70FB470B588B0DDE91746169D182283
:1039500010A96846FCF702FE0CA80FC8FFF723F970
:10396000182210A968460695FCF7F8FD0CA80FC8A8
:10397000FFF774FB0BE014F8010B182210A9069056
:103980006846FCF7EBFD0CA80FC8FFF767FB301E7D
:10399000A6F10101CEB2EED1182210A96846FCF7BB
:1039A000DDFD0CA80FC8FFF7F4F808B070BC5DF897
:1039B00014FB0FB430B589B0DDE91645A0201822FC
:1039C00010A9CDE9074506906846FCF7C7FD0CA88D
:1039D0000FC8FFF7B6FF09B030BC5DF814FB0FB499
:1039E00030B587B0DDE9144518220EA96846FCF70A
:1039F000B5FD0AA80FC8FFF7D6F8202C18DA04F096
:103A00001F0040F0200018220EA906906846FCF71F
:103A1000A5FD0AA80FC8FFF721FB18220EA96846CA
:103A20000695FCF79BFD0AA80FC8FFF717FB1BE0E4
:103A300018220EA968460694FCF790FD0AA80FC844
:103A4000FFF70CFBE12C0FD0E22C0DD0E32C0BD0B8
:103A5000FF2C09D018220EA968460695FCF77EFDBA
:103A60000AA80FC8FFF7FAFA18220EA96846FCF751
:103A700075FD0AA80FC8FFF78CF807B030BC5DF8D9
:103A800014FB000070B52DED048B86B004460D4686
:103A9000B0EE408AF0EE608A4448844202D0444846
:103AA000844204D1042006B0BDEC048B70BD2C60B0
:103AB0006946204600F006FF009802F086FD41ECC2
:103AC000190B53EC182B02F093FD01D20120EAE709
:103AD0009FED380B53EC102B51EC180B02F00CFD42
:103AE00001D10220DFE7204600F03CFEB0EE480A9C
:103AF000F0EE680A684600F0CBFD0646042E01D1C0
:103B00000220D0E7032E01D10120CCE751EC180BA5
:103B100002F02EFDE86053EC182B9FED280B51ECC2
:103B2000100B02F091FB41EC190B02F021FD286112
:103B3000039868600498A8600498401E2085039844
:103B4000401EE06200206062208820801748844286
:103B500009D01748844206D020884FF6FF4108401C
:103B60002080208820801748844202D01648844252
:103B700001D1002020860120A082208840F0800012
:103B800020801048844202D00F48844205D1B4F806
:103B9000440040F40040A4F84400208840F00100B4
:103BA0002080002085F8240000BF7CE70010004042
:103BB00000140040000000000000000000000000B1
:103BC00080842E410000014000040140704770478E
:103BD000704700001CB504464CB9052003210023A2
:103BE0001A46CDE90010E0210A48FEF7B9FB012C86
:103BF00009D10520032100231A46CDE90010382100
:103C00000548FEF7ADFB032C03D10521034800F066
:103C100045F91CBD00000240000402400030014094
:103C20001CB50446A4B90520032100231A46CDE99A
:103C300000104FF480611648FEF792FB0520032127
:103C400000231A46CDE900100C211248FEF788FB2C
:103C5000012C0AD10520032100231A46CDE90010CA
:103C60004FF460410A48FEF77BFB022C09D1052086
:103C7000032100231A46CDE900100D210648FEF766
:103C80006FFB032C03D10521044800F007F91CBD8C
:103C900000040240000802400020024000380040BA
:103CA0001CB504464CB90620032100231A46CDE971
:103CB000001038210B48FEF753FB012C0AD10620D7
:103CC000032100231A46CDE900104FF4E0510648C5
:103CD000FEF746FB032C03D10621044800F0DEF872
:103CE0001CBD00000004024000080240003C0040EF
:103CF0001CB504464CB90520032100231A46CDE922
:103D0000001064210B48FEF72BFB012C0AD1052083
:103D1000032100231A46CDE900104FF4E041054885
:103D2000FEF71EFB032C03D10521034800F0B6F873
:103D30001CBD000000100240003401401CB50446C8
:103D400054B90520032100231A46CDE900104FF491
:103D500060711048FEF704FB012C13D105200321EC
:103D600000231A46CDE90010E1020A48FEF7F8FAEE
:103D70000520032100231A46CDE90010C021064882
:103D8000FEF7EEFA032C03D10521044800F086F873
:103D90001CBD000000140240001C02400050014005
:103DA0001CB5044654B90520032100231A46CDE969
:103DB00000104FF4E0410548FEF7D2FA032C03D17E
:103DC0000521034800F06AF81CBD000000180240FD
:103DD000005401407CB504460D462A4884420AD16D
:103DE00000204FF4827120230246CDE900102946BD
:103DF000204600F075F8244884420AD100204FF490
:103E0000827120230246CDE900102946204600F0A9
:103E100067F81E4884420AD100204FF482712023A3
:103E20000246CDE900102946204600F059F818480E
:103E300084420AD100204FF4827120230246CDE94A
:103E400000102946204600F04BF8124884420AD15F
:103E500000204FF4827120230246CDE9001029464C
:103E6000204600F03DF80C4884420AD100204FF46F
:103E7000827120230246CDE900102946204600F039
:103E80002FF87CBD0030014000380040003C00406D
:103E90000034014000500140005401407CB505460B
:103EA0000C460C48854213D1E0B2032100231A4688
:103EB000CDE90010C0210848FEF752FAE0B2032114
:103EC00000231A46CDE9001008210448FEF748FAFD
:103ED0007CBD0000003001400000024000040240B0
:103EE0002DE9F04385B004460E4615461F46DDE930
:103EF0000C89684601F09AFE4B4884420AD14B482F
:103F0000006840F48050494908603046FFF762FE7F
:103F100020882080464884420CD14448001F006815
:103F200040F480404149091F08603046FFF778FEA1
:103F3000208820803F4884420CD13C48001F006804
:103F400040F400403949091F08603046FFF7A8FED9
:103F500020882080384884420AD13448006840F4E0
:103F60000050324908603046FFF7C2FE20882080AA
:103F7000324884420AD12D48006840F480102B4911
:103F800008603046FFF7DAFE208820802C48844203
:103F90000AD12648006840F40010244908603046E1
:103FA000FFF7FEFE2088208020882080208840EABD
:103FB00009002080208840F400702080208840EA9A
:103FC00008002080208820F038003843208025B960
:103FD00020882080208820801BE0012D06D12088A9
:103FE0002080208840F00100208012E0022D06D1C0
:103FF000208840F0020020802088208009E0032DE6
:1040000007D1208840F002002080208840F0010085
:104010002080208820F040002080208840F0400050
:10402000208005B0BDE8F0830030014044380240F4
:1040300000380040003C0040003401400050014086
:104040000054014010B5002000F0AAF900F0F4FA85
:1040500010BD2DE9F84F80460D4691461E46DDF80D
:1040600028B0F01DC11700EB5171C91009B20091C1
:104070004FF0000A002726E000241EE004F00700AD
:1040800020B14FEA4A604FEA106A09E02046E11782
:1040900004EB5171CA10009907FB012119F801A026
:1040A0000AF0800038B10B9BDAB2A9B208EB040326
:1040B00098B200F0E1F8601C04B2B442DEDB781C78
:1040C00007B2681C05B25F45D6DBBDE8F88F2DE965
:1040D000F84305460C4617469846DDF82090802D9B
:1040E00001DA402C01DBBDE8F883E819802802DB07
:1040F000C5F1800087B204EB0800402803DBC4F15F
:1041000040001FFA80F800260CE0A01983B2E819DD
:1041100082B2A01981B22846CDF8009000F006F8CE
:10412000701CC6B24645F0DD00BFDCE72DE9FF4F4D
:1041300004460D4616461F46802C00DB7F24802E49
:1041400000DB7F26402D00DB3F25402F00DB3F2793
:10415000B44201DA301B00E0A01B0FFA80FBBD4225
:1041600001DA781B00E0E81B0FFA80F9B44201DAAB
:10417000012001E04FF0FF300390BD4201DA012041
:1041800001E04FF0FF300290CB4501DD594601E0E0
:10419000C9F10001084601EBD071491009B2019143
:1041A000BBF1000F1ED1AF4204DA0FFA87FA2F4697
:1041B0001FFA8AF5A64204DA0FFA86FA26461FFA93
:1041C0008AF40FFA85F809E01FFA88F120460D9A63
:1041D00000F052F808F101000FFA80F8B845F3DD5D
:1041E000BDE8FF8FB9F1000F1DD1AF4204DA0FFA1D
:1041F00087FA2F461FFA8AF5A64204DA0FFA86FAE2
:1042000026461FFA8AF40FFA84F809E01FFA88F0AC
:1042100029460D9A00F030F808F101000FFA80F8F5
:10422000B045F3DDDCE722E0294620460D9A00F098
:1042300023F8B44202D1BD4200D119E001980090A8
:10424000CBF100010098884207DD0198A0EB09003E
:1042500000B201900398204484B20098484506DAE1
:104260000198584400B201900298284485B2DBE7D7
:1042700000BF00BFB4E70000F0B503461446802B32
:1042800001DA402900DBF0BD2148007920B10CB9EA
:10429000012000E000200446012C1CD1CD1701EBC9
:1042A0005575ED1003EBC5151A4E755D0A46CE1710
:1042B00001EB5676F610A1EBC6070126BE4035434A
:1042C000EEB20846CD1701EB5575ED1003EBC515A1
:1042D000104F7E551AE0CD1701EB5575ED1003EB2D
:1042E000C5150C4E755D0A46CE1701EB5676F610D5
:1042F000A1EBC6070126BE40B5430846CE1701EB29
:104300005676F61003EBC616024FBD5500BFBAE74E
:1043100026010020340400202DE9F84104460D4612
:1043200016461F46DDF81C80802C01DA402D01DB8B
:10433000BDE8F881A019802802DBC4F1800086B2B4
:10434000E819402802DBC5F1400087B2A01982B20B
:104350002B4629462046CDF80080FFF7E7FEE819F6
:1043600083B2A01982B2E81981B22046CDF800804C
:10437000FFF7DCFEE81983B2224629462046CDF835
:104380000080FFF7D3FEE9198BB2A1198AB2A119F7
:1043900088B22946CDF80080FFF7C8FE00BFC7E706
:1043A00010B504460CB9002000E0FF2002464FF48F
:1043B00080610248FCF704F910BD000034040020BD
:1043C000014A1080518070472601002010B5624AD2
:1043D00001216248FEF78CF940F6C41400E0641E27
:1043E000002CFCD1AE23002278215C48FEF75CFA59
:1043F0002023002278215948FEF756FA1023002284
:1044000078215648FEF750FAB0230022782153480D
:10441000FEF74AFAC823002278215048FEF744FAF2
:1044200000231A4678214D48FEF73EFA1023002259
:1044300078214A48FEF738FA40230022782147487D
:10444000FEF732FA8123002278214448FEF72CFA45
:10445000FF23002278214148FEF726FAA1230022FB
:1044600078213E48FEF720FAA623002278213B4817
:10447000FEF71AFAA823002278213848FEF714FA2A
:104480003F23002278213548FEF70EFAA4230022AC
:1044900078213248FEF708FAD323002278212F48EA
:1044A000FEF702FA00231A4678212C48FEF7FCF9A1
:1044B000D523002278212948FEF7F6F9F0230022BF
:1044C00078212648FEF7F0F9D923002278212348E5
:1044D000FEF7EAF92223002278212048FEF7E4F9CA
:1044E000DA23002278211D48FEF7DEF9122300228C
:1044F00078211A48FEF7D8F9DB23002278211748E3
:10450000FEF7D2F92023002278211448FEF7CCF9D7
:104510008D23002278211148FEF7C6F914230022CA
:1045200078210E48FEF7C0F9AF23002278210B480E
:10453000FEF7BAF92E23002278210848FEF7B4F9D5
:104540000020FFF72DFF00F077F8002004490880D5
:1045500048800120487110BD801A060000540040B8
:10456000260100202DE9F04307460C4690462648D8
:10457000008821780844802805DA2348408861783B
:104580000844402802DB0020BDE8F083002530E02D
:10459000A7F12000617800FB0150616831F81090AC
:1045A000002622E009FA06F000F4004058B1164A4D
:1045B00052882A4491B2144A1288324490B2424638
:1045C000FFF75AFE10E0B8F1000F01D1012300E01F
:1045D00000231A460C4B5B882B4499B20A4B1B886C
:1045E000334498B2FFF748FE761C2078B042D9D801
:1045F0006D1C6078A842CBD8034800882178084415
:10460000014908803846BFE72601002070B50446FE
:104610000D4616460AE0207832462946FFF7A2FFEB
:104620002178884201D0207870BD641C2078002851
:10463000F1D12078F8E7000038B5002420E004F13B
:10464000B000C3B2002278210F48FEF72DF90023F5
:104650001A4678210C48FEF727F91023002278210A
:104660000948FEF721F9802000900848802101FBCD
:104670000403402278210448FEF746F9601CC4B2C6
:10468000082CDCDB38BD000000540040340400205E
:1046900010B52DED068B0446B0EE408AF0EE608A30
:1046A000206801F092FF41EC190B53EC182B01F03C
:1046B0009FFF07D200202061E06060610320BDEC15
:1046C000068B10BD9FED250B53EC102B51EC180BF6
:1046D00001F012FF05D100202061E060606104203C
:1046E000EDE76068B0F5803F02D26068401C606012
:1046F0000020206100BF2069401C2168B1FBF0F060
:10470000E060E06801F061FF41EC1A0B53EC182BFC
:1047100001F09AFD41EC190B01F02AFFE0602069DD
:10472000401C20616168E068884204D9A068401C90
:1047300021698142DFD9A068401C2169814205D9E5
:1047400000202061E06060610420B8E751EC180BA4
:1047500001F00EFF60610020B1E7000000000000E2
:104760000000000001464948814205D148480068E0
:1047700040F00100464A1060B1F1804F07D1444833
:10478000001F006840F00100414A121F10604148BC
:10479000814207D13E48001F006840F002003C4AB9
:1047A000121F10603C48814207D13948001F006841
:1047B00040F00400364A121F10603848814207D189
:1047C0003348001F006840F00800314A121F106093
:1047D0003348814207D12E48001F006840F0100086
:1047E0002B4A121F10602F48814207D12848001F12
:1047F000006840F02000264A121F10602A488142BB
:1048000005D12348006840F00200214A1060274883
:10481000814205D11E48006840F480301C4A106077
:104820002348814205D11A48006840F40030184AF4
:1048300010602048814205D11548006840F480206E
:10484000134A10601C48814207D11148001F0068BC
:1048500040F040000E4A121F10601848814207D1F4
:104860000B48001F006840F08000094A121F1060CA
:104870001348814207D10648001F006840F4807049
:10488000034A121F10600020704700000000014022
:10489000443802400004004000080040000C004082
:1048A000001000400014004000040140004001409E
:1048B000004401400048014000180040001C004036
:1048C000002000407FB504460D46684601F0D6F84A
:1048D0004FF6FF70A860B4F1804F02D01F488442A9
:1048E00007D1039828604FF0FF306860002004B0C3
:1048F00070BD1B4884420BD01A48844208D01A4825
:10490000844205D01948844202D01948844206D115
:10491000019828604FF6FF7068600020E7E71548AF
:10492000844211D0144884420ED0144884420BD0E3
:104930001348844208D01348844205D01248844268
:1049400002D01248844206D1039828604FF6FF70C7
:1049500068600020CBE70220C9E70000000C00409F
:1049600000000140000401400040014000440140BB
:1049700000480140000400400008004000100040D2
:104980000014004000180040001C004000200040BF
:1049900030B52DED068B85B09FED2B0A10EE105A29
:1049A0000020FFF7FDFC00BF0520FCF7AFFF274903
:1049B000D1E90401CDE9000124480FC8FDF7E9F869
:1049C000044604F0400018B105B0BDEC068B30BDC4
:1049D00014210020FFF7F4FC01221D491DA0FFF760
:1049E00015FE1E210020FFF7EBFC1F49C88901F0CE
:1049F000ECFD41EC1A0B9FED1D0B53EC102B01F05D
:104A000033FE41EC190B9FED1B0B53EC102B01F007
:104A10002BFE41EC180B01F0D9FB0546284601F0AE
:104A200021FF41EC180B53EC182B14A103A8FBF742
:104A300051FC0122064903A8FFF7E8FDFFF7FCFD42
:104A4000C820FCF763FFAFE7000000002C00002047
:104A50002C010020566F6C7473204261747465726F
:104A60007920545800000000B4020020B4D934E783
:104A70000C684A3F5D74D145175D0440252E3266AF
:104A8000000000000EB5FFF7DDFA00BF0A25012483
:104A900000200290814682468346002600BF052002
:104AA000FCF734FF7049D1E90401CDE900016E48FB
:104AB0000FC8FDF76EF8064606F00400C8B1BBF15A
:104AC000000F16D14FF0010B012C02D100F036FC83
:104AD0000DE0022C02D1FFF75BFF08E0092C02D1A8
:104AE00000F08EFD03E0042C01D100F0C9F80A208B
:104AF000029006F0040020B9BBF1010F01D14FF084
:104B0000000B06F0010048B9B9F1000F06D14FF0D3
:104B10000109601E44B2002C00DA092406F00100ED
:104B200020B1B9F1010F01D14FF0000906F00200E8
:104B300048B9BAF1000F06D14FF0010A601C44B227
:104B40000A2C00D1002406F0020020B1BAF1010FB6
:104B500001D14FF0000A0298844201D0029400E093
:104B60009DE7601E47B2002F00DA0927601C4FFA4C
:104B700080F8B8F10A0F01DB4FF000080020FFF7C2
:104B80000FFC01201021CDE90010384951F82720F1
:104B9000A81C10230421FFF75CFA05F1190188B263
:104BA0000921FFF70DFC07EB8701314A02EB810079
:104BB00001223049FFF72AFD01201021CDE9001024
:104BC0002A4951F82420A81C10231821FFF741FA84
:104BD00005F1190188B21D21FFF7F2FB04EB8401F6
:104BE000234A02EB810001222249FFF70FFD012039
:104BF0001021CDE900101D4951F82820A81C1023D0
:104C00002C21FFF726FA05F1190188B23121FFF7AF
:104C1000D7FB08EB8801164A02EB810001221549F7
:104C2000FFF7F4FC01200D210923134ACDE9001000
:104C30001A210020FFF70DFA0120402108230F4A16
:104C4000CDE9001000217820FFF703FA0120009041
:104C500004EB44004004010C062303227D20FFF7EF
:104C600036FAFFF7E9FC1AE72C0000208401002047
:104C7000AC0100202C010020E9D10008A9D10008D6
:104C80002DE9F04FA9B0C820FCF740FEFE4BD3E958
:104C900001021968DB6821AC0DC4209100260024B4
:104CA000A146A246A34600201F901E90804600BF4A
:104CB000F649D1E90401CDE90001F4480FC8FCF739
:104CC00068FF804608F04000A8B1F148FDF796F96A
:104CD0003422F0496846FBF7FCFB4022ED490C39D1
:104CE0000EA8FBF7F6FBEA480EA90EC900F078FC07
:104CF00029B0BDE8F08F08F0040040B11E9830B92B
:104D000001201E90601C44B2042C00D1002408F045
:104D1000040020B91E98012801D100201E9008F03F
:104D2000200048B1BBF1000F06D14FF0010B701C01
:104D300046B2082E00D1002608F0200020B9BBF1B1
:104D4000010F01D14FF0000B08F0100040B11F9887
:104D500030B901201F90701E46B2002E00DA0726DF
:104D600008F0100020B91F98012801D100201F90E1
:104D700008F0010078B3B9F1000F4CD14FF00109F0
:104D8000304606EBD071491001EB84014FB206EBBF
:104D9000D0714910A6EB4105F5B1BE48083800EBCB
:104DA000870030F81500083081B2BA48083800EBA7
:104DB000870020F81510B748083800EB870030F856
:104DC000150040F6C411884225DDB248083800EBD2
:104DD000870020F815101EE0AE48083800EB870069
:104DE00030F81500083881B2AA48083800EB87006F
:104DF00020F81510A748083800EB870030F8150098
:104E0000B0F5617F07DA4FF46171A248083800EB12
:104E1000870020F8151008F0010020B9B9F1010F42
:104E200001D14FF0000908F0020078B3BAF1000F89
:104E30004BD14FF0010A304606EBD071491001EB1F
:104E400084014FB206EBD0714910A6EB4105F5B1D4
:104E50009048083800EB870030F81500083881B218
:104E60008C48083800EB870020F81510894808386E
:104E700000EB870030F8150040F2A461884224DA84
:104E80008448083800EB870020F815101DE08148A1
:104E9000083800EB870030F81500083081B27D48F3
:104EA000083800EB870020F815107A48083800EB26
:104EB000870030F8150040F2A461884205DD75488E
:104EC000083800EB870020F8151008F0020020B920
:104ED000BAF1010F01D14FF0000A0020FFF760FA8C
:104EE00003212320FFF76CFA01226B496BA0FFF727
:104EF0008DFB0F210420FFF763FA012000EB8400F3
:104F00000A2827DA6349083901EB04114988A1F21C
:104F1000A46188B240F6C41240F2A461FCF72CFCF4
:104F2000A2005C4908391D9031F8221040F2A462B9
:104F3000511A88B24FF46171FCF71EFC1C901D9849
:104F40000090012000EB840257A124A81C9BFBF7D2
:104F5000C1F926E04F49083901EB04114988A1F253
:104F6000A46188B240F6C41240F2A461FCF704FCCC
:104F7000A200484908391D9031F8221040F2A4627D
:104F8000511A88B24FF46171FCF7F6FB1C901D9822
:104F90000090012000EB840249A124A81C9BFBF790
:104FA00099F901223C4924A8FFF730FB1B2104207A
:104FB000FFF706FA022000EB84000A282CDA012110
:104FC00001EB84023349083901EB82014988A1F2DF
:104FD000A46188B240F6C41240F2A461FCF7CCFB95
:104FE000012101EB84022B4908391D9031F8221070
:104FF00040F2A462511A88B24FF46171FCF7BCFB15
:105000001C901D980090022000EB840226A124A889
:105010001C9BFBF75FF92BE0012101EB84021D498A
:10502000083901EB82014988A1F2A46188B240F6F7
:10503000C41240F2A461FCF79FFB012101EB840242
:10504000144908391D9031F8221040F2A462511A17
:1050500088B24FF46171FCF78FFB1C901D98009093
:10506000022000EB84021CA124A81C9BFBF732F950
:105070000122094924A8FFF7C9FA27210420FFF7D4
:105080009FF9032032E00000D0D900082C00002056
:1050900000000108800200202C010020456E6420E1
:1050A000506F696E7400000043483025642020254D
:1050B00033642525202020253364252500000000A9
:1050C00043482532642020253364252520202025CF
:1050D0003364252500000000434825642020253343
:1050E00064252520202025336425250000EB84003D
:1050F0000A282BDA022101EB8402714901EB8201BB
:105100004988A1F2A46188B240F6C41240F2A461B9
:10511000FCF732FB022101EB840269491D9031F852
:10512000221040F2A462511A88B24FF46171FCF768
:1051300023FB1C901D980090032000EB8402AFF22B
:10514000980124A81C9BFBF7C5F82AE0022101EB7B
:1051500084025B4901EB82014988A1F2A46188B213
:1051600040F6C41240F2A461FCF706FB022101EBF9
:10517000840253491D9031F8221040F2A462511A62
:1051800088B24FF46171FCF7F7FA1C901D980090FB
:10519000032000EB8402AFF2D80124A81C9BFBF78C
:1051A00099F80122474924A8FFF730FA042000EBC0
:1051B0008400102800D165E033210420FFF700F9B6
:1051C000042000EB84000A282BDA032101EB84027F
:1051D0003B4901EB82014988A1F2A46188B240F603
:1051E000C41240F2A461FCF7C7FA032101EB840268
:1051F00033491D9031F8221040F2A462511A88B24E
:105200004FF46171FCF7B8FA1C901D9800900420CF
:1052100000EB8402AFF2701124A81C9BFBF75AF834
:105220002AE0032101EB8402254901EB8201498830
:10523000A1F2A46188B240F6C41240F2A461FCF766
:105240009BFA032101EB84021D491D9031F82210C5
:1052500040F2A462511A88B24FF46171FCF78CFAE3
:105260001C901D980090042000EB8402AFF2B01156
:1052700024A81C9BFBF72EF80122124924A8FFF753
:10528000C5F900BF0120402380220021009008467C
:10529000FFF742F80120092120AA02EB4602CDE9DE
:1052A000001092F9011020AA02EB460292F90000C8
:1052B0000623054AFEF7CDFEFFF7BEF9F8E400002D
:1052C000780200202C01002015D200081CB5FEF742
:1052D000B9FEFFF7B1F90120402180230F4ACDE943
:1052E000001000210846FEF7B4FE00240EE0012065
:1052F00006232246352100900D20FEF7E8FEFFF739
:105300009BF93220FCF702FB601CC4B2652CEEDB7B
:10531000FEF798FEFFF790F91CBD0000AED3000821
:1053200013B50C46102221460098FCF7D1FE012847
:1053300001D000201CBD0120FCE700002DE9F04F4A
:10534000A3B06420FCF7E2FAFEF77CFEFFF774F9E5
:1053500099480088219000250126002020901F9068
:1053600080468146824683461E903220FCF7CEFA64
:1053700000BF0120FCF7CAFA9049D1E90401CDE948
:1053800000018E480FC8FCF704FC044604F04000FE
:1053900010B123B0BDE8F08F04F00400B0B11E9846
:1053A000A0B901201E908648FCF728FE34228249CD
:1053B0000C316846FBF78DF840227F490EA8FBF7B9
:1053C00088F87F480EA90EC900F00AF904F004001D
:1053D00020B91E98012801D100201E9004F0200061
:1053E00068B1BAF1000F0AD14FF0010A701C46B241
:1053F000082E04DD0826082D01D0681CC5B204F073
:10540000200020B9BAF1010F01D14FF0000A04F0D9
:10541000100060B1BBF1000F09D14FF0010B701EFD
:1054200046B2012E03DA01260DB1681EC5B204F0A2
:10543000100020B9BBF1010F01D14FF0000B04F0B7
:10544000010088B1B8F1000F0ED14FF001085A48A1
:105450000088711E4A19012191400843564908806D
:1054600008460088219030E004F0010020B9B8F12E
:10547000010F01D14FF0000804F0020088B1B9F12A
:10548000000F0ED14FF001094B480088711E4A19D8
:1054900001219140884348490880084600882190AE
:1054A00013E004F0020020B9B9F1010F01D14FF06F
:1054B00000092098864202D11F98A84203D0209666
:1054C00068B21F9000E054E700BF0020FEF768FFBD
:1054D00003212820FEF774FF01223A493AA0FFF782
:1054E00095F8012040238022002100900846FEF715
:1054F00013FF00271FE07819401C092807DDC7EBC0
:105500000711491D88B22D21FEF75AFF06E0C7EBAF
:10551000071101F109002D21FEF752FF7819421CF5
:105520002BA122A8FAF7D6FE0122264922A8FFF7CE
:105530006DF8781CC7B2082FDDDB002720E0791951
:10554000012088402199084060B101201021CDE957
:105550000010C7EB0711C81D0A231E4A1921FEF7C8
:1055600078FD0BE001201021CDE90010C7EB0711F9
:10557000C81D0A23184A1921FEF76BFD781CC7B213
:10558000082FDCDB0020092378220C210090052065
:10559000FEF79DFDFFF750F801200921CDE900102D
:1055A000711EC1EB0111481D0D230C4A0C21FEF7A1
:1055B00050FDFFF741F8DCE6740200202C000020CB
:1055C000000001082C0100205265766572736500A9
:1055D000256400001ED200083ED2000803D2000855
:1055E0000FB410B5102203A90298FCF791FD012811
:1055F00003D0002010BC5DF814FB0120FAE7000086
:105600002DE9FC41002700250026002400BF0520CD
:10561000FCF77CF94C49D1E90401CDE900014A4885
:105620000FC8FCF7B6FA044604F0400008B1BDE824
:10563000FC8104F0010010B10DB90125002704F030
:10564000010010B9012D00D1002504F0020010B1B5
:105650000EB90126012704F0020010B9012E00D175
:105660000026002F37D10020FEF79AFE01204023AC
:105670008022002100900846FEF74EFE01210C20FA
:10568000FEF79EFE0122314931A0FEF7BFFF012245
:105690000A210C20FDF75CF916210C20FEF790FE84
:1056A00001222A492EA0FEF7B1FF02221F210C2061
:1056B000FDF74EF92B210C20FEF782FE0122234933
:1056C0002BA0FEF7A3FF032234210C20FDF740F9A5
:1056D000FEF7B2FF36E00020FEF762FE0120402315
:1056E0008022002100900846FEF716FE01210C20C2
:1056F000FEF766FE0122154921A0FEF787FF04226E
:105700000A210C20FDF724F916210C20FEF758FE83
:1057100001220E491EA0FEF779FF05221F210C2051
:10572000FDF716F92B210C20FEF74AFE012207494E
:105730001BA0FEF76BFF062234210C20FDF708F9B1
:10574000FEF77AFF63E700002C0000202C01002008
:105750002D202020202043483120202020202B00F5
:105760002D202020202043483220202020202B00E4
:105770002D202020202043483320202020202B00D3
:105780002D202020202043483420202020202B00C2
:105790002D202020202043483520202020202B00B1
:1057A0002D202020202043483620202020202B00A0
:1057B000C28883889A420EDA028983889A4201D18C
:1057C0000022028103890268D1540289521C02819D
:1057D000C288521CC280704700BFFEE770470000BD
:1057E00070B5002100230F22C4781CB3174C246825
:1057F00004F4E064C4F5E064C4F30721C1F10404D7
:10580000E3B20A4144789C40E1B2847814402143D9
:105810000C07210E0E4C05786155047804F01F0525
:105820000124AC4005786D11AD0005F1E025C5F807
:10583000004109E0047804F01F050124AC40054D47
:105840000678761145F8264070BD00000CED00E0AA
:1058500000E400E080E100E010B5002807DA0A0764
:10586000140E054A00F00F031B1FD45403E00A076F
:10587000130E024A135410BD18ED00E000E400E0DE
:10588000F0B589B000257549D1E90401CDE90001E1
:1058900072480FC8FCF77DF906460024CAE0072CC1
:1058A0007EDA6F4800880121A1400840F0B36D48BE
:1058B00030F8140004EB44016B4A02EB41014988C3
:1058C000884219DC40F2A460654F3F1D009037F814
:1058D000243004EB440794460CEB47077A8804EB2A
:1058E00044073CF817105F4F37F8140000F03EFCF7
:1058F0005E4921F814009BE05948001D00EB84002C
:10590000408804EB4403584F07EB430300909A8808
:1059100004EB440307EB43035988524B33F814005C
:1059200040F2A46300F022FC504900E002E021F8BC
:1059300014007DE04B4830F8140004EB44014A4A5F
:1059400002EB4101498888421ADC40F2A460444FCE
:105950003F1D07EB840700907B8804EB44079446C7
:105960000CEB47077A8804EB44073CF817103D4FCF
:1059700037F8140000F0FAFB3C4921F8140057E016
:105980003748001D30F8240004EB4403364F07EB82
:10599000430300909A8804EB440307EB430300E0C1
:1059A0000BE059882F4B33F8140040F2A46300F049
:1059B000DDFB2E4921F814003AE00E2C33DA28489A
:1059C00000880121A1400840B0B10120A84030402A
:1059D00038B12348001D30F82400244921F8140070
:1059E00007E01F48001D00EB840040881F4921F894
:1059F0001400681CC5B21BE00120A840304040B133
:105A00001748001D00EB84004088184921F8140055
:105A100006E01348001D30F82400144921F8140052
:105A2000681CC5B204E040F2A460104921F81400DB
:105A3000601CC4B2102CFFF632AF0D4800780B4941
:105A40001822CDE906100B496846FAF787FD094888
:105A500010380FC8FDF70DFF09B0F0BD5C00002045
:105A600074020020B402002000000020E4020020A4
:105A70009D0000208400002070470000F0B5002148
:105A800000220024022500260223324F3F6807F03F
:105A90000C0121B1042905D0082937D105E02E4F8A
:105AA000076036E02D4F076033E02A4F3F1F3F6805
:105AB000C7F38056274F3F1F3F6807F03F036EB183
:105AC000264FB7FBF3F7DFF88CC0ACF1040CDCF821
:105AD00000C0CCF3881C07FB0CF40CE01E4FB7FB96
