:020000040800F2
:10000000E806002089010008B92300081D05000842
:10001000B52300087D020008A52F0008000000009D
:100020000000000000000000000000005D29000842
:100030008102000800000000E1280008552A00089D
:10004000A3010008A3010008A3010008A301000800
:10005000A3010008A3010008A3010008A3010008F0
:10006000A3010008A3010008A3010008A3010008E0
:10007000A3010008A3010008A3010008A3010008D0
:10008000A3010008A3010008A3010008A3010008C0
:10009000A3010008A3010008A3010008A3010008B0
:1000A000A3010008A3010008A3010008A3010008A0
:1000B000A3010008A3010008A3010008A301000890
:1000C000A3010008A3010008A3010008A301000880
:1000D000A3010008A3010008A3010008A301000870
:1000E000A3010008A3010008A301000800F002F822
:1000F00000F03AF80AA090E8000C82448344AAF188
:100100000107DA4501D100F02FF8AFF2090EBAE885
:100110000F0013F0010F18BFFB1A43F0010318473B
:10012000E833000008340000103A24BF78C878C1D2
:10013000FAD8520724BF30C830C144BF04680C60ED
:10014000704700000023002400250026103A28BF35
:1001500078C1FBD8520728BF30C148BF0B60704739
:100160001FB51FBD10B510BD00F055F81146FFF7C3
:10017000F7FF02F01BFF00F073F803B4FFF7F2FF84
:1001800003BC02F011FF00000948804709480047FE
:10019000FEE7FEE7FEE7FEE7FEE7FEE7FEE7FEE737
:1001A000FEE7FEE704480549054A064B7047000094
:1001B000752A0008ED000008E8000020E80600208D
:1001C000E8020020E802002040EA0103024630B5C0
:1001D0009B0710D14FF0013400E008C208C91D1B75
:1001E0009D4315EAC41FF8D013F0FF0102F8011B6C
:1001F0000DD01B0AF8E711F8013B002B02F8013B78
:1002000005D011F8013B002B02F8013BF3D130BDC2
:10021000704770477047754600F02CF8AE460500F1
:100220006946534620F00700854618B020B5FFF711
:10023000B9FFBDE820404FF000064FF000074FF037
:1002400000084FF0000BAC46ACE8C009ACE8C009B0
:10025000ACE8C009ACE8C00921F007018D46704741
:1002600010B50446AFF300802046BDE81040FFF70C
:1002700084BF00000048704750000020FEE70000E7
:100280007047000080B540F20000C2F20000006834
:100290004DF68361C4F21B31A0FB0101880C02F012
:1002A000C1FB00B1FEE7BDE8804002F087B8000066
:1002B00040F2DC01C2F2000100220A604FF47A72BF
:1002C000504300BF0A688242FCD3704710B582B029
:1002D000019042F21004C4F2020400BF54F8040C6E
:1002E000C007FBD12068000648BF00F03BF820683B
:1002F00040F00200206001986060206840F04000FB
:10030000206000BF54F8040CC007FBD154F8040C63
:10031000800642BF54F8040C20F0200044F8040C7E
:10032000206800F002002060206800F0400020609B
:10033000206840F08000206002B010BD81B00090C5
:100340000020002918BF002A01D101B07047002009
:10035000009BC35C0B5401308242F9D1012001B0F3
:100360007047000042F20400C4F2020040F2231180
:10037000C4F26751016048F6AB11CCF6EF51016051
:100380007047000070B582B00190002089B3154617
:100390007AB30C4615F001012BD142F21006C4F2DB
:1003A000020600BF56F8040CC007FBD130680006F7
:1003B00048BFFFF7D7FF306840F0010030600020F1
:1003C000B0EB550F08D06808002100BF625A019BAE
:1003D000CA5202310138F9D156F8040CC007FBD1DA
:1003E000306800F001003060306840F0800030601C
:1003F000012002B070BD00002DE9F04391F803E048
:100400000EF00F0C5FEACE6244BF8A784CEA020C11
:1004100009880A061FD0036800224FF001094FF037
:100420000F08002609FA06F70F420FD00CFA02F562
:1004300008FA02F4A3432B43BEF1480F04D0BEF1E7
:10044000280F08BF476101E0076100BF0432013691
:10045000082EE7D10360B1F5807F38BFBDE8F08397
:10046000436800224FF480794FF00F08002600BF48
:1004700009FA06F707EA0105BD420FD10CFA02F5A9
:1004800008FA02F4A3432B43BEF1480F04D0BEF197
:10049000280F08BF476101E0076100BF0432013641
:1004A000082EE5D14360BDE8F0830000B0B504221A
:1004B000C4F2010202F1180E00281346B8BF7346B9
:1004C0001B681FFA80FCC0F3034400F44015B5F527
:1004D000401F07D1146824F07064146023F0706327
:1004E00081B916E0C50206D46FF00F0404EA504447
:1004F0000CFA04F402E0032505FA04F4A34343F0E4
:10050000706331B16FF00F0101EA50410CFA01F153
:100510000B430028B8BF72461360B0BDFEE7000071
:1005200080B582B0ADF80410032A54D8DDF814C0A9
:10053000DFE802F002150C110499A9B3022937D0A3
:10054000012904BF48218DF8071044E063B1012B55
:100550000DD11C2209E000218DF807103BE09BB172
:10056000012B14D1142210E018228DF80720BCF1C1
:10057000000F21D0BCF1010F22D0BCF1020F04BF4B
:1005800003218DF8061026E010228DF80720BCF11B
:10059000000F19D0BCF1010F1AD0BCF1020F04BF3B
:1005A00003218DF8061016E004218DF8071012E0E3
:1005B00028218DF807100EE002218DF806100AE0C0
:1005C00001218DF8061006E002218DF8061002E0E8
:1005D00001218DF8061001A9FFF70EFF02B080BDC2
:1005E00010B5A0F18040A0F584304FEAB020062875
:1005F00008D8DFE800F0040A0D10131619000124D2
:10060000042014E00024204610BD012408200EE040
:10061000012410200BE00124202008E001244020C8
:1006200005E00124802002E001244FF480700121C4
:1006300002F064F9204610BDF0B583B01C461546A3
:100640000E460746FFF7CCFF48B1DDE90810CDE9BB
:100650000010384631462A462346FFF761FF03B0B3
:10066000F0BD000098B211690843106170470000A6
:10067000106940EA0340106170470000009801696A
:10068000BDF8042011430161704700000098016922
:10069000019A41EA02410161704700002DE9F04FE3
:1006A0008BB0984691460E4607460525089543F2BD
:1006B000FF44C0F600040794302006901998059076
:1006C000189804901798039016980290DDF854A09B
:1006D000CDF804A0DDF850B0CDF800B0384601F0F8
:1006E000EDFB08950DF127051020CDE900BA16990C
:1006F000029117990391189904911999CDE9051060
:100700000795384631464A46434600F025FC00200E
:10071000295C2278914207D1013001340528F7D3B2
:1007200001200BB0BDE8F08F00200BB0BDE8F08FCA
:100730002DE9F04F89B01C4615460E4607460720A6
:1007400006901798059016980490DDF854B0CDF8EF
:100750000CB0DDF85080CDF80880DDF84C90CDF875
:100760000490DDF848A0CDF800A0384600F00AFD5E
:1007700040F07000CDE900A9CDE9028B16990491F3
:10078000179905910721CDE90610384631462A46CA
:10079000234601F021FC09B0BDE8F08F2DE9F04FB0
:1007A00089B01C4615460E460746DDE91632DDE9DE
:1007B0001410DDE91298DDF860A0BAF1060F0CD331
:1007C0004FF0000C4FF0010ECDE90098CDE902107A
:1007D000CDE90432CDE906EC1EE04FF0010BCDE986
:1007E0000098CDE90210CDE90432CDF818B03846B2
:1007F00031462A46234600F0C5FC0BFA0AF188432D
:10080000CDE90098149902911599039116990491D4
:100810001799CDE9051B0790384631462A462346ED
:1008200001F0DAFB09B0BDE8F08F000080B588B0B8
:100830004FF0FF0CCDF81CC04FF0E20CCDF818C003
:10084000DDF83CC0CDF814C0DDF838C0CDF810C0DC
:10085000DDF834C0CDF80CC0DDF830C0CDF808C0EC
:10086000DDF82CC0CDF804C0DDF828C0CDF800C0FC
:1008700001F0B2FB08B080BD80B588B04FF0FF0C2E
:10088000CDF81CC04FF0E10CCDF818C0DDF83CC02D
:10089000CDF814C0DDF838C0CDF810C0DDF834C094
:1008A000CDF80CC0DDF830C0CDF808C0DDF82CC0A4
:1008B000CDF804C0DDF828C0CDF800C001F08CFBF5
:1008C00008B080BD2DE9F04F87B01C4615460E4696
:1008D00007461598059014980490DDF84C80CDF8E3
:1008E0000C80DDF84890CDF80890DDF844A0CDF8F4
:1008F00004A0DDF840B0CDF800B03846FFF7C6FEE2
:100900006020CDE900BACDE90298149904911599B7
:10091000CDE90510384631462A46234600F018FB3B
:10092000FF20CDE900BACDE90298149904911599F8
:10093000CDE90510384631462A46234600F008FB2B
:100940008046CDE900BACDF808901398039014982A
:10095000049015980590384631462A462346FFF7FD
:100960008DFE404607B0BDE8F08F000080B588B02E
:100970004FF0070CCDF818C0DDF83CC0CDF814C01E
:10098000DDF838C0CDF810C0DDF834C0CDF80CC0AB
:10099000DDF830C0CDF808C0DDF82CC0CDF804C0BB
:1009A000DDF828C0CDF800C000F0ECFB08B080BD39
:1009B00080B588B04FF0170CCDF818C0DDF83CC0FA
:1009C000CDF814C0DDF838C0CDF810C0DDF834C063
:1009D000CDF80CC0DDF830C0CDF808C0DDF82CC073
:1009E000CDF804C0DDF828C0CDF800C000F0CAFB87
:1009F00000F0030008B080BD10B588B00C46014679
:100A00006846FFF7E1FBBDF800002080BDF802005A
:100A10006080BDF80400A080BDF80600E080BDF84D
:100A200008002081BDF80A006081BDF80C00A0819B
:100A3000BDF80E00E081BDF810002082BDF8120064
:100A40006082BDF81400A082BDF81600E082BDF8F7
:100A500018002083BDF81A006083BDF81C00A08335
:100A6000BDF81E00E08308B010BD00002DE9F04F76
:100A700089B01C4615460E4607460220012100910A
:100A80004FF0010B01904FF00209139881B282469A
:100A900012984FF0000801220023FFF7CDFDCDE9A9
:100AA00000B9A1B2284601220023FFF7C5FDF1B22B
:100AB000384601F07FFB0820CDE9068017980590A5
:100AC00016980490DDF85480CDF80C80DDF850B015
:100AD000CDF808B0D146CDF804A0DDF848A0CDF897
:100AE00000A0384631462A46234601F075FA3F21D8
:100AF000CDE900A9CDE902B8DDF85890CDF8109005
:100B0000179805900120CDE90601384631462A465E
:100B1000234601F061FACDF800A01398CDE9010B4E
:100B2000CDF80C80C346CDF81090DDF85C80CDF890
:100B30001480022006903F200790384631462A460E
:100B4000234601F049FA4FF0030A129800901398D7
:100B500001901498CDE9020BCDE90498CDE906AADD
:100B6000384631462A46234601F036FA04201299C7
:100B70000091139901911499CDE9021BCDE90498D4
:100B8000CDE9060A384631462A46234601F024FAC2
:100B9000052012990091DDF84CA0CDF804A014991D
:100BA000CDE9021BCDE90498069002200790384653
:100BB00031462A46234601F00FFA0E200621DDF8C1
:100BC00048B0CDE900BA149A0292DDF85490CDF8FD
:100BD0000C90169ACDE90428CDE906103846314626
:100BE0002A46234601F0F8F90720CDE900BA149906
:100BF000CDE902191699CDE9041806900020079056
:100C0000384631462A46234601F0E6F91120CDE95F
:100C100000BAD3461499CDE90219CA46DDF85890B6
:100C2000CDE90498069000200790384631462A46C0
:100C3000234601F0D1F912201299CDE9001B149935
:100C4000CDE9021ACDE904980690002007903846B5
:100C500031462A46234601F0BFF913201299CDE907
:100C6000001B1499CDE9021ACDE9049806900020E2
:100C70000790384631462A46234601F0ADF9142044
:100C80001299CDE9001B1499CDE9021ACDE9049817
:100C9000069000200790384631462A46234601F048
:100CA0009BF915201299CDE9001B1499CDE9021A80
:100CB000CDE90498069000200790384631462A4630
:100CC000234601F089F916201299CDE9001B1499E9
:100CD000CDE9021ACDE90498069000200790384625
:100CE00031462A46234601F077F91C201299CDE9B6
:100CF000001B1499CDE9021ACDE90498C14606906B
:100D000000200790384631462A46234601F064F910
:100D10001D201299CDE9001B1499CDE9021ADDF8C6
:100D20005880CDE904890690002007903846314666
:100D30002A46234601F050F91298CDE9000B149889
:100D4000CDE9020ACDE90489384631462A462346D0
:100D5000FFF76CFD1298CDE9000B1498CDE9020A5B
:100D60001698CDE90409C846384631462A46234636
:100D7000FFF782FD1298CDE9000B1498CDE9020A25
:100D8000DDF85890CDE90498384631462A46234686
:100D9000FFF7CEFCDDF84880CDE9008B1498CDE953
:100DA000020AD346CA46CDF81090DDF85C90CDF823
:100DB0001490384631462A462346FFF75FFCCDF8AB
:100DC0000080139801901498CDE9020BCDE904A995
:100DD000384631462A462346FFF74AFC09B0BDE8AB
:100DE000F08F00002DE9F04F87B01C4615460E46E7
:100DF00007461598059014980490DDF84CA0CDF89E
:100E00000CA0DDF848B0CDF808B0119801908046EC
:100E1000DDF84090CDF800903846FFF729FCCDE989
:100E20000098C146CDE902BAD04614980490DDF886
:100E300054A0CDF814A0384631462A462346FFF781
:100E4000F5FC10988DE8010ACDF80C80C146DDF85C
:100E50005080CDE9048A384631462A462346FFF7BA
:100E600067FC0120109900911199CDE9011BCDE992
:100E70000398CDE905A0384631462A46234600F0BE
:100E800045FB109800901198CDE9010BCDE903982E
:100E9000CDF814A0384631462A462346FFF7E2FB38
:100EA00007B0BDE8F08F00002DE9F04F87B01C4679
:100EB00015460E4607461598059014980490DDF8DF
:100EC0004CA0CDF80CA0DDF848B0CDF808B01198D2
:100ED00001908046DDF84090CDF800903846FFF74D
:100EE000C7FBCDE90098CDE902BAD046149804902A
:100EF000DDF854A0CDF814A0384631462A462346E2
:100F0000FFF7BAFCCDF800901198CDE9010BCDF8B0
:100F10000C801498CDE9040A384631462A46234607
:100F2000FFF706FC0020CDF800901199CDE9011BD8
:100F3000CDF80C801499CDE9041A06903846314654
:100F40002A46234600F0E2FA07B0BDE8F08F000021
:100F5000069901F059B900002DE9F04F87B01C4601
:100F600015460E4607461598059014980490DDF82E
:100F70004CA0CDF80CA0DDF848B0CDF808B0DDF8F5
:100F80004480CDF80480DDF84090CDF800903846DC
:100F9000FFF77CFB1698CDE90098CDE902BA1499C9
:100FA000049115998946CDE90510384631462A46FF
:100FB0002346FFF7CDFFDDF860A0BAF1000F1DD08A
:100FC000DDF85CB04FF0FF08109800901198019088
:100FD00012980290139803901498CDE90409CDF863
:100FE0001880384631462A462346FFF7B1FF0BF8F2
:100FF000010BAAF1010A5FEA0A60E5D1109800909E
:101000001198019012980290139803901498CDE9CA
:101010000409384631462A462346FFF72FFB07B01E
:10102000BDE8F08F80B58AB04FF0000CCDF820C03D
:10103000DDF84CC0CDF81CC0DDF848C0CDF818C0B4
:10104000DDF844C0CDF814C0DDF840C0CDF810C0C4
:10105000DDF83CC0CDF80CC0DDF838C0CDF808C0D4
:10106000DDF834C0CDF804C0DDF830C0CDF800C0E4
:1010700000F002F80AB080BD2DE9F04F89B0984623
:1010800015460E46074607200690179805901698B5
:1010900004901598039014980290DDF84CA0CDF8B8
:1010A00004A0DDF848B0CDF800B0384600F06AF88A
:1010B000C0F34204DDF86490052C2CD81A9878B35C
:1010C000CDE900BA149802901598039016980490F0
:1010D00017980590384631462A464346FFF7F2FBFB
:1010E00089F80000212814D3002089F80000CDE9F8
:1010F00000BA1498029015980390169804901798C7
:101100000590384631462A464346FFF78FFB99F84B
:101110000000F0B932E0002089F80000FF242DE043
:1011200043F2F940C0F60000005DCDE900BA149921
:10113000029115990391169904911799CDE905101B
:10114000384631462A46434600F01CF889F800002C
:10115000A0B1189908906120CDE900BA149A0292C2
:10116000159A0392169A0492179ACDE905200791D1
:10117000384631462A464346FFF7EEFE204609B080
:10118000BDE8F08F2DE9F04F87B01C4615460E469E
:1011900007461598059014980490DDF84C80CDF81A
:1011A0000C80DDF84890CDF80890DDF844A0CDF82B
:1011B00004A0DDF840B0CDF800B03846FFF766FA7D
:1011C000169800F01F00CDE900BACDE902981499F5
:1011D00004911599CDE90510384631462A46234633
:1011E000FFF7B6FEFF20CDE900BACDE902981499C9
:1011F00004911599CDE90510384631462A46234613
:10120000FFF7A6FE8046CDE900BACDF80890139806
:1012100003901498049015980590384631462A4654
:101220002346FFF72BFA404607B0BDE8F08F0000D9
:101230002DE9F04F89B01C4615460E46074605209D
:1012400006901798059016980490DDF854B0CDF8E4
:101250000CB0DDF85080CDF80880DDF84C90CDF86A
:101260000490DDF848A0CDF800A03846FFF78AFFCB
:10127000CDE900A9CDE9028B169904911799059142
:101280000521CDE90610384631462A46234600F0AE
:10129000A3FE09B0BDE8F08F2DE9F04F89B01546E7
:1012A000189A062A22D81C460E460746DDE912A9DE
:1012B00019990120904010F03C0F1AD0087807903F
:1012C00043F2F240C0F60000805C0690CDE900A930
:1012D000149802901598039016980490179805900A
:1012E000384631462A46234600F076FE09B0BDE86E
:1012F000F08F0320CDE900A914990291159903916B
:10130000DDF858B0CDF810B0DDF85C80CDE905808F
:10131000384631462A462346FFF734FF0890CDE988
:1013200000A9149802901598CDE9030BCDF814800C
:10133000384631462A462346FFF7A8F943F2F240E1
:10134000C0F600001899405C40F02000CDE900A9EB
:10135000149902911599CDE9031BCDE90580384612
:1013600031462A462346FFF7F3FD089800F10108AD
:101370005FFA88F0199901EB000B00BF1BF8010917
:10138000CDE900A914990291159903911699049138
:101390001799CDE90510384631462A462346FFF70E
:1013A000D7FDA8F101005FEA08618046E6D1CDE9EA
:1013B00000A9149802901598039016980490179815
:1013C0000590384631462A462346FFF757F909B0BB
:1013D000BDE8F08F80B588B04FF0030CCDF818C091
:1013E000DDF83CC0CDF814C0DDF838C0CDF810C031
:1013F000DDF834C0CDF80CC0DDF830C0CDF808C041
:10140000DDF82CC0CDF804C0DDF828C0CDF800C050
:10141000DDF840C0ACF1020C5FFA8CFCCDF81CC0CA
:1014200000F0DAFD08B080BD2DE9F04F89B01C4610
:1014300015460E4607460020069017980590169808
:101440000490DDF854B0CDF80CB0DDF85080CDF844
:101450000880DDF84C90CDF80490DDF848A0CDF878
:1014600000A03846FFF78EFE00F0F300189901F057
:101470000C010844CDE900A9CDE9028B169904912D
:10148000179905910021CDE90610384631462A46C4
:10149000234600F0A1FD09B0BDE8F08F2DE9F04F23
:1014A00089B01C4615460E4607460620069017983A
:1014B000059016980490DDF854B0CDF80CB0DDF826
:1014C0005080CDF80880DDF84C90CDF80490DDF820
:1014D00048A0CDF800A03846FFF754FE00F0D70032
:1014E00018990843CDE900A9CDE9028B169904911A
:1014F000179905910621CDE90610384631462A464E
:10150000234600F069FD09B0BDE8F08F2DE9F04FEA
:1015100089B01C4615460E460746002006901798CF
:10152000059016980490DDF854B0CDF80CB0DDF8B5
:101530005080CDF80880DDF84C90CDF80490DDF8AF
:1015400048A0CDF800A03846FFF71CFE00F0FE00D2
:10155000189901F001010844CDE900A9CDE9028BF9
:1015600016990491179905910021CDE90610384686
:1015700031462A46234600F02FFD09B0BDE8F08F22
:101580002DE9F04F89B01C4615460E46074600204F
:1015900006901798059016980490DDF854B0CDF891
:1015A0000CB0DDF85080CDF80880DDF84C90CDF817
:1015B0000490DDF848A0CDF800A03846FFF7E2FD22
:1015C00000F0FD01189A022A08BF40F00201CDE99F
:1015D00000A9CDE9028B1698049017980590002079
:1015E000CDE90601384631462A46234600F0F4FC90
:1015F00009B0BDE8F08F000080B588B0DDF840C0CC
:10160000CDF81CC04FF0050CCDF818C0DDF83CC07B
:10161000CDF814C0DDF838C0CDF810C0DDF834C006
:10162000CDF80CC0DDF830C0CDF808C0DDF82CC016
:10163000CDF804C0DDF828C0CDF800C000F0CCFC27
:1016400008B080BD2DE9F04F89B01C4615460E4606
:101650000746022006901798059016980490159852
:101660000390DDF85080CDF80880DDF84C90CDF87F
:101670000490DDF848B0CDF800B03846FFF782FDA1
:10168000189A012101FA02FA40EA0A0000F03F002C
:10169000CDE900B9CDF8088015990391DDF858809F
:1016A000CDF81080179905910221CDE90610384632
:1016B00031462A46234600F08FFC1A9800F03F007E
:1016C000079043F2F940C0F600001899405C06907C
:1016D0001798CDE904801598039014980290CDE9ED
:1016E00000B9384631462A46234600F075FCCDE95C
:1016F00000B9DDF85080CDF8088015980390DDF82A
:1017000058B0CDF810B0DDF85C80CDF814804FF003
:101710000109CDF81890384631462A462346FFF78E
:1017200031FDCDF81890CDE904B8159903911499BD
:101730000291139901911299009120EA0A01199AD4
:10174000012A08BF40EA0A01C8B20790384631466C
:101750002A46234600F040FC09B0BDE8F08F0000A7
:101760002DE9F04F89B01C4615460E460746062067
:1017700006901798059016980490DDF854B0CDF8AF
:101780000CB0DDF85080CDF80880DDF84C90CDF835
:101790000490DDF848A0CDF800A03846FFF7F2FC31
:1017A00000F0F90018990843CDE900A9CDE9028BB2
:1017B00016990491179905910621CDE9061038462E
:1017C00031462A46234600F007FC09B0BDE8F08FF9
:1017D0002DE9F04F9FB0834600680BF104078ECFD0
:1017E000DBE90565DBF81C401A960DF1540C8CE81A
:1017F0008F00DBE90801CDE91D01CDE91B549DF8FF
:10180000790010B11FB0BDE8F08F15981490DDE994
:1018100016120B92189B1293DDE91996DDE91B74E1
:10182000DDE91DEA4FF0FF0CCDF84490CDE90096BC
:10183000B0461396CDE902747646CDE904EACDE9C7
:101840000CEACDF818C00D46FEF7A8FF9DF86A0017
:10185000CDE900980297B9460F9403A981E8500496
:101860000690149829462E4610950B9F3A46DDF8AF
:1018700048804346FFF7C0FE9DF86B001199009128
:101880008A461399CDE9011903940C9D04950D9C8A
:10189000CDE90540149831463A464346FFF7FEFD30
:1018A0000C20CDF800A0139901914E46CDF8389048
:1018B000CDF80890DDF83C90CDE90395CDE90540E1
:1018C0001498109F3946DDF82CA052464346FFF786
:1018D000ABFD9DF86E00119D0095139901AA82E859
:1018E00042024E46DDF83090CDE9049406901498FB
:1018F000394652464346FFF76DFD15A800F11B011E
:101900000A9106200095DDF84C80CDF804800E9FEA
:10191000CDE90276CDE90494CDE906011498109E34
:1019200031465246129D2B46FFF7B6FC0021119816
:10193000CDE9000802970F9FCDE90379CDE9054174
:101940000A980790DDF8508040463146524654468A
:101950002B46FFF7A1FC15A820300121119D009511
:10196000139E01960E9A02AB83E88402DDF834A040
:10197000CDE905A107904046DDF84080414622466A
:10198000129BFFF789FC9DF86C000890CDE900568A
:101990000E9F02970F9C03A880E810060120069076
:1019A0000020079014984146DDF82C804246DDF86F
:1019B00048A05346FFF746FE9DF86D008DE8E00015
:1019C000CDE903490D99CDE90510149C20461099E5
:1019D00042465346FFF7C4FE0095A946CDE901678C
:1019E0003E46DDF83C80CDF80C800C9804900D9DAF
:1019F0000595012006902046DDF840A051460B9F3A
:101A00003A46129C2346FFF781FD0220CDF8009054
:101A1000DDF84C90CDE90196CDF80C80DDF83080F2
:101A2000CDE904850690149E304651463A46234639
:101A3000FFF7A6FD3220FEF73BFC1198CDE9000927
:101A40000E9802900F98CDE903080595304651464F
:101A50003A462346FEF706FE01208BF825001FB00C
:101A6000BDE8F08F2DE9F04F93B00E9304278DF869
:101A7000487040F2AA17C0F20237119705278DF877
:101A8000437000270697DDF884A0CDF814A0209FAE
:101A900004971F9E03961E9C02941D9D01951C9FFA
:101AA000009781460D9088469346FFF769FD052013
:101AB00008900120CDE90075CDE902462099CDE9D5
:101AC000041A0690002007904846CDF83080414621
:101AD0005A46DDF838904B46FFF7B4FD0220CDE9B9
:101AE0000075CDE902462099CDE9041A06900D98BB
:101AF00041465A464B46FFF743FDDDF880E0DDF8EE
:101B00003480CC460C995A4600204FF00009CDF89D
:101B10003CB00AE0DDF8289009F10109DDE9204A2E
:101B2000A646DDE90D8C1E9C0020CDE9007502ABB8
:101B300083E85040CDE905A040466346E346F246BF
:101B4000FFF71EFD0120FEF7B3FBCDF828905FFAEA
:101B500089F0CDE90075A14602A981E85004219CD5
:101B60000990CDE9054040460C990F9A5B46FFF776
:101B700043FD0120FEF79CFBCDE90075CDE90296FF
:101B8000CDE904A4A1460220069040460C990F9A84
:101B90005B46FFF7F5FC0120FEF78AFBCDE90075F7
:101BA0001E9C02A880E85004CDF8149040460C9981
:101BB0000F9A5B46FFF778F90120FEF779FBCA46DA
:101BC0009DF843100B91CDE90075CDE90246DDF893
:101BD00080B0CDE904B90DF14409CDE90691404644
:101BE0000C99DDE90E3200F0C7F8CDE9007502A8C6
:101BF00080E85008CDE905A90B98079040460C995C
:101C0000DDE90E924B4600F0B7F8CDE9007502A869
:101C100080E85008CDF814A040460C990F9A4B4626
:101C2000FFF7E0F80C990F9A4FF0310ACDE90075F3
:101C30001E9CCDE90246A846DDF88090CDF81090B4
:101C4000DDF884B0CDF814B00D980D460E9BFEF76C
:101C5000AFFE01282ED0CDE900781E98CDE902060E
:101C6000209804902198059011A806900DF143004A
:101C70000790DDF834B058462946B9462F460F9DE7
:101C80002A460E9C2346FFF7CDF9CDE900981E9811
:101C9000CDE90206209804902198059058463946CF
:101CA0002A463D464F462346FEF742FD9DF8440036
:101CB000F02811D00120FEF7FBFAAAF101005FEA3B
:101CC0000A4182460F9A29464546AFD109987D2898
:101CD0007FF420AFFF204BE0CDE900781E9CCDE9DA
:101CE0000246DDF88090CDF8109021980590DDF83F
:101CF000349048462946AA460F9D2A46DDF838B05A
:101D00005B46FFF76FF80020CDE90078CDE9024689
:101D1000209904912199CDE90510484651462A465B
:101D20005B46FFF72DFCE0B208900120CDE900787A
:101D3000CDE90246209904912199CDE905100020B2
:101D40000790484651462A465B46FFF77BFC022037
:101D5000CDE90078CDE90246209904912199CDE999
:101D60000510484651462A465B46FFF709FC0A988B
:101D7000C0B213B0BDE8F08F2DE9F04F89B098469E
:101D800015460E4607464FF6FF70089017980590C7
:101D900016980490DDF854A0CDF80CA0DDF850B0F2
:101DA000CDF808B0139C0194DDF84890CDF8009070
:101DB0003846FEF75DFC199807901898069017981A
:101DC000059016980490CDE902BACDE90094384602
:101DD00031462A46434600F0D5F8CDE90094CDF8C7
:101DE00008B0D346CDF80CA01698824604901798F8
:101DF00081460590384631462A464346FEF732FC76
:101E000012980090139801901498CDE9020BCDE937
:101E100004A9384631462A464346FEF7A7FD044644
:101E200010F0300F04D10898411E08910028E7D126
:101E300012980090139801901498CDE9020BCDE907
:101E400004A9384631462A464346FEF711FC089855
:101E500080B31298009013980190149802901598EE
:101E600003901698049017980590384631462A46F4
:101E70004346FEF75DFCE00642BF032009B0BDE823
:101E8000F08FA00642BF012009B0BDE8F08F129884
:101E90000090139801901498CDE9020BCDE904A9A4
:101EA000384631462A464346FEF7E6FC002009B094
:101EB000BDE8F08F022009B0BDE8F08F2DE9F04FAA
:101EC00087B01C4615460E4607461598059014988F
:101ED0000490DDF84C90CDF80C90DDF848B0CDF8CA
:101EE00008B0DDF844A0CDF804A0DDF84080CDF8BE
:101EF00000803846FEF7CAFB16988DE8000DCDF835
:101F00000C9014998946049115998846CDE90510DD
:101F1000384631462A462346FFF71AF8DDF860A016
:101F2000BAF1000F1AD0DDF85CB000BF1BF8010B4E
:101F30001099009111990191129902911399CDE98B
:101F40000319CDE90580384631462A462346FEF777
:101F5000FFFFAAF1010A5FEA0A60E7D1109800903A
:101F600011980190129802901398CDE90309CDF8C9
:101F70001480384631462A462346FEF77FFB07B0D9
:101F8000BDE8F08F80B58AB0DDF84CC0CDF820C038
:101F9000DDF848C0CDF81CC04FF0A00CCDF818C03B
:101FA000DDF844C0CDF814C0DDF840C0CDF810C055
:101FB000DDF83CC0CDF80CC0DDF838C0CDF808C065
:101FC000DDF834C0CDF804C0DDF830C0CDF800C075
:101FD000FFF774FF0AB080BD2DE9F04F87B01C46B3
:101FE00015460E460746DDF854B0CDF814B0DDF8BE
:101FF0005080CDF81080DDF84C90CDF80C90129800
:10200000029011980190109800903846FEF73EFB20
:10201000DDF858A0BAF11F0F27D8012060F35F1A2E
:1020200010980090119801901298CDE90209CDE91D
:10203000048BCDF818A0384631462A462346FEF7D1
:1020400087FF10980090119801901298CDE902092D
:10205000CDE9048B17980690384631462A46234628
:10206000FEF776FFA246129C2EE010980090119881
:1020700001901298CDE90209CDE9048BCDF818A0A2
:10208000384631462A462346FEF762FFAAF1E100B0
:102090001E28A246129C07D8012101FA00F0072150
:1020A000C4F2000108420FD110980090119801A9C4
:1020B00081E81102CDE9048B179806903846314625
:1020C0002A465346FEF744FF10980090119801A944
:1020D00081E81102CDE9048B384631462A46534641
:1020E000FEF7CCFA07B0BDE8F08F000070B582B003
:1020F000012810D000281CBF02B070BD02200021B2
:10210000CDE9001040F60040C4F20100A0F5806067
:10211000E02102221EE0012501200121FEF7C6F97F
:1021200040F20040C0F230000121FEF7BFF9022664
:102130000020CDE9000640F60044C4F20104204628
:10214000282102220023FEF777FACDE90056204627
:10215000102100220023FEF76FFA02B070BD0000CC
:1021600070B582B0012815D010BB02250026CDE93C
:10217000006540F60044C4F2010420464FF480613B
:1021800002220023FEF758FACDE9006504F58060CD
:102190000C2109E002200021CDE9001040F60040AA
:1021A000C4F201004FF4604102220023FEF744FA1A
:1021B00002B070BD80B582B043F60002C4F20002E6
:1021C000904211D043F20003C4F2010398421CBFB5
:1021D00002B080BD00204FF48273CDE9003002F5DB
:1021E0007840002210230AE000204FF48272CDE9EB
:1021F000002043F60000C4F200000022202300F07B
:102200001BF802B080BD0000028852065EBF0020AD
:10221000C0B2704702899207FCD002891206F9D435
:10222000818100BF01898907FCD001890906F9D4A1
:102230008089C0B2704700002DE9F04385B01E468A
:1022400015460F460446684600F080FBDDE90C8920
:1022500043F60000C4F2000084420ED043F20000B6
:10226000C4F20100844213D141F20100012100F0C7
:1022700045FB3846FFF73AFF07E04FF48040012165
:1022800000F030FB3846FFF76BFF0020ADF804008C
:10229000ADF80E900020ADF80000ADF80C604FF4E2
:1022A0000071ADF80A10ADF80280032D0FD800219F
:1022B000DFE805F0090205070121002003E0002105
:1022C00000E001210220ADF80810ADF806002088DA
:1022D00020F0400020806946204600F01BFB20884B
:1022E00040F04000208005B0BDE8F08370B540F2BA
:1022F0002C06C2F2000632884FF08040002100F028
:10230000DBFA72884FF08040012100F0D5FAB288E4
:1023100040F20044C4F2000404F58065284603211D
:1023200000F0CAFAF2882846022100F0C5FA328984
:102330002846012100F0C0FA72892846002100F0E9
:10234000BBFAB2892046012100F0B6FAF289204694
:10235000002100F0B1FA328A04F5943528460321B1
:1023600000F0AAFA728A2846022100F0A5FAB28A81
:102370002846012100F0A0FAF28A2846002100F048
:102380009BFA328B4FF08040032100F095FA728B5C
:102390004FF08040022100F08FFAB28B20460321DB
:1023A00000F08AFAF28B20460221BDE8704000F06E
:1023B00083BA0000FEE70000704700004EF623508D
:1023C000CEF20000F02101707047000080B582B0AD
:1023D00041F60302ADF80620032866D8DFE800F0D6
:1023E00002180D2301292ED000295ED104200121DD
:1023F00000F084FA4FF480701EE001292AD00029F1
:1024000053D10420012100F079FA4FF4806013E0E9
:10241000012926D0002948D10420012100F06EFABC
:102420004FF4007008E001292ED0F1BB04200121F7
:1024300000F064FA4FF40060ADF8040040F60000CC
:10244000C4F201001BE04020012100F057FA4FF4D4
:1024500000700CE04020012100F050FA4FF40050D1
:1024600005E04020012100F049FA4FF48060ADF80A
:10247000040040F60000C4F2010000F5805001A9FC
:10248000FDF7BAFF02B080BD4020012100F036FA0E
:102490004FF48040ADF8040040F60000C4F20100A3
:1024A00000F5805001A9FDF7A7FF02B080BD000034
:1024B00010B582B041F60302ADF8062003285AD8C1
:1024C000DFE800F002101A23022956D001295BD060
:1024D000002950D101240520012100F00FFAADF8A8
:1024E000044058E0012919D0002944D105200121D8
:1024F00000F004FA02204CE0012915D0D9BB0520D8
:10250000012100F0FBF9042043E0012922D091BB16
:102510000520012100F0F2F908203AE0092001210C
:1025200000F0ECF908200CE00920012100F0E6F9A8
:1025300040F20020C0F218000121FDF7B7FF4FF470
:102540008060ADF8040040F60000C4F2010000F520
:10255000806024E00920012100F0D0F94FF40060F0
:10256000ADF8040040F60000C4F2010000F5806000
:1025700001A9FDF741FF02B010BD0520012100F0C7
:10258000BDF94FF4004004E00520012100F0B6F948
:102590002020ADF8040040F60000C4F2010001A9BB
:1025A000FDF72AFF02B010BDB0B582B00C4605465B
:1025B0000120012100F0A2F941F60300ADF8060068
:1025C000032D56D8DFE805F0020E222D022C52D042
:1025D000012C56D0002C4CD10520012100F08EF9A1
:1025E00040200AE0022C52D0012C5ED0002C40D1B9
:1025F0000520012100F082F98020ADF8040040F6AA
:102600000040C4F20100A0F5806059E0012C11D017
:102610007CBB01240920012100F070F9ADF80440D1
:102620004AE0012C0DD024BB0920012100F066F9FD
:1026300002203FE01120012100F060F94FF480708A
:102640002AE01120012100F059F942F20000C0F205
:1026500020000121FDF72AFF4FF40070ADF80400BF
:1026600040F60040C4F2010000F5806001A9FDF7CA
:10267000C3FE02B0B0BD1120012100F03FF940209F
:102680000AE00920012100F039F9102012E01120A0
:10269000012100F033F98020ADF8040040F600403D
:1026A000C4F2010000F580600AE00920012100F079
:1026B00025F92020ADF8040040F60040C4F20100E6
:1026C00001A9FDF799FE02B0B0BD000080B582B04F
:1026D00041F60302ADF80620032864D8DFE800F0D5
:1026E00002170C2101292CD000295CD108200121DE
:1026F00000F004F940201DE0012929D0002952D121
:102700000820012100F0FAF84FF4807012E001294E
:1027100025D0002947D10820012100F0EFF88020C2
:1027200008E001292ED0F1BB0820012100F0E6F8D5
:102730004FF40070ADF8040040F60040C4F2010010
:102740001BE02020012100F0D9F84FF480500CE06C
:102750002020012100F0D2F84FF4804005E0202035
:10276000012100F0CBF84FF40050ADF8040040F622
:102770000040C4F2010000F5006001A9FDF73CFE35
:1027800002B080BD2020012100F0B8F84FF40040D5
:10279000ADF8040040F60040C4F2010000F500600E
:1027A00001A9FDF729FE02B080BD0000F0B583B09D
:1027B0001E4617460D4604460120012100F09EF8F2
:1027C000204629463A4600F02DF800208DF80800F2
:1027D000ADF80600ADF80460ADF802000898ADF859
:1027E00000006946204600F071FB42F60046C4F244
:1027F0000106B44204D02046294600F013FA02E054
:10280000284600F0A3F92046012100F0EBF93046FC
:10281000012100F0FBF92046012100F0EDF903B0A1
:10282000F0BD0000B0B514460D4640F2FF71C4F291
:102830000001884212DCB0F1804F27D040F2004105
:10284000C4F20001884235D10220012100F04AF88B
:1028500028462146BDE8B040FFF7A6BE40F600017D
:10286000C4F2000188421BD042F60041C4F20101CB
:10287000884218BFB0BD4FF40060012100F03EF85F
:1028800028462146BDE8B040FFF7A0BD0120012148
:1028900000F028F828462146BDE8B040FFF708BE02
:1028A0000420012100F01EF828462146BDE8B04072
:1028B000FFF70CBFB0BD0000032988BF7047DFE8F9
:1028C00001F0020B0508114600F0F6BA114600F0BF
:1028D000F7BA114600F0F6BA114600F0EFBA000060
:1028E0007047000041F21C02C4F202020029116884
:1028F0000CBF21EA000008431060704741F2180243
:10290000C4F20202002911680CBF21EA000008434A
:102910001060704702880B8802F441521A434B88BA
:102920001A438B881A43CB881A430B891A434B8965
:102930001A438B891A43CB891A430280828B22F473
:1029400000628283098A0182704700000021C16011
:10295000816041600160072101827047704700007B
:10296000AFF3008082B000200190009041F204009B
:10297000C4F2020050F8041C41F4803140F8041CF9
:1029800050F8041C01F400310091019901310191CA
:10299000009919B90199B1F5A06FF1D150F8041C53
:1029A000890354BF0021012100910099012936D1EA
:1029B00042F20001C4F202010A6842F010020A6009
:1029C0000A6822F003020A600A6842F002020A6002
:1029D0000168016001680160016841F48061016083
:1029E000016821F47C110160016841F4E811016083
:1029F00050F8041C41F0807140F8041C50F8041C8D
:102A00008901FBD5016821F003010160016841F0F3
:102A100002010160016801F00C010829FAD102B03D
:102A200070470000B0B50024B4EB106F1EBF012446
:102A30002046B0BD20F07F4001384EF21005CEF2A6
:102A400000056860FFF7BAFCAC60072028602046EC
:102A5000B0BD000040F2DC00C2F2000001680131AC
:102A6000016040F2B000C2F2000001680131016073
:102A70007047000080B541F20000C4F20200016816
:102A800041F00101016041680022CFF6FF021140D0
:102A9000416001684FF6FF72CFF6F66211400160A7
:102AA000016821F480210160416821F4FE01416048
:102AB0004FF41F018160FFF753FF4EF60850CEF22E
:102AC00000004FF00061016080BD000041F2040091
:102AD000C4F2020050F8041C41F4803140F8041C98
:102AE00050F8041C8903FBD5816941F08051816154
:102AF00042F20001C4F202010A6842F022020A60B6
:102B0000016841F480310160016841F4E011016025
:102B1000016821F400510160016841F480610160A5
:102B2000016821F08001016050F8041C41F08071BF
:102B300040F8041C50F8041C8901FBD5016841F0E1
:102B40000201016001680907FCD5704710B584B027
:102B50004FF08071039102210291042101917021B3
:102B6000C0F201010091032839D8DFE800F002101B
:102B70001E2C42F60044C4F201046946204600F0CF
:102B800099F82046082100F0CFF804B010BD42F6B5
:102B90000044C4F201046946204600F0CBF8204608
:102BA000082100F005F904B010BD42F60044C4F25B
:102BB00001046946204600F003F92046082100F090
:102BC0003DF904B010BD42F60044C4F20104694668
:102BD000204600F039F92046082100F065F904B0DC
:102BE00010BD0000028842F08003002908BF22F0D7
:102BF0008003038070470000028842F0010300292F
:102C000008BF22F00103038070470000B0F84420A1
:102C100013466FF3DF33002918BF42F40043A0F8D6
:102C20004430704710B584B0044642F60040C4F208
:102C30000100844208BF002916D00020ADF808002A
:102C40006020C0F201000090032930D8DFE801F0D5
:102C500013021D276946204600F06CF82046082123
:102C600000F0A6F804B010BD0020ADF808007020F8
:102C7000C0F2010000906946204600F01BF8204693
:102C8000082100F051F804B010BD6946204600F05C
:102C900097F82046082100F0D1F804B010BD69462D
:102CA000204600F0D1F82046082100F0FDF804B0DD
:102CB00010BD000010B5028C22F001020284048CC9
:102CC000B0F804E0038B0A8823F0730343EA020C94
:102CD00024F002020B891A434B881A43A0F1804367
:102CE000A3F596334FEAB323072B14D8012404FA33
:102CF00003F313F0E50F0ED02EF440738C892343B9
:102D0000CC8943EA040E22F00C024B8923F0040321
:102D10001A438B881A43A0F804E0A0F818C0C988A9
:102D20008186028410BD0000028B22F0080211434C
:102D30000183704710B5028C22F010020284048CCB
:102D4000B0F804E0038B0A8823F4E64343EA022C3C
:102D500024F020020B8942EA03124B8842EA031254
:102D600043F20043C4F20103984205D042F6004307
:102D7000C4F20103984212D18B892EF4406444EAD4
:102D80008303CC8943EA840E4B896FF0400404EA44
:102D9000031322F0C0021A438B8842EA0312A0F800
:102DA00004E0A0F818C0C9880187028410BD0000A3
:102DB000028B22F4006242EA012101837047000085
:102DC00010B5028C22F480720284048CB0F804E006
:102DD000838B0A8823F0730343EA020C24F4007205
:102DE0000B8942EA03224B8842EA032243F2004362
:102DF000C4F20103984205D042F60043C4F2010335
:102E0000984212D18B892EF4405444EA0313CC89A2
:102E100043EA041E4B891B0240F2FF44A34322F401
:102E200040621A438B8842EA0322A0F804E0A0F82B
:102E30001CC0C9888187028410BD0000828B22F0EB
:102E4000080211438183704710B5028C22F480522E
:102E50000284048CB0F804E0828B0B8822F4E642F2
:102E600042EA032C24F400520B8942EA03324B88D5
:102E700042EA033343F20042C4F20102904205D019
:102E800042F60042C4F20102904204D18A892EF433
:102E9000804444EA821EA0F804E0A0F81CC0C9885F
:102EA000A0F84010038410BD828B22F4006242EA35
:102EB0000121818370470000818670470187704738
:102EC00081877047A0F8401070470000B0F800C03C
:102ED00040F6FF33C4F2000398420FDCB0F1804F9C
:102EE0001ED040F20043C4F20003984218D040F6CE
:102EF0000003C4F20003984212D016E040F60043EB
:102F0000C4F2000398420BD043F20043C4F2010321
:102F1000984205D042F60043C4F20103984204D11E
:102F20002CF070024B8843EA020C40F4806341F2BB
:102F30000042C4F20002934204D02CF44072CB88C9
:102F400043EA020CA0F800C08A8882850A880285BC
:102F5000A0F18042A2F596324FEAB222072A07D8A2
:102F6000012303FA02F212F0E50F1CBF097A018671
:102F7000012181827047000040F2B000C2F20000DF
:102F8000006844F6D351C1F26201A0FB0101880937
:102F90007047000040F2B000C2F200000021016062
:102FA00070470000FEE70000FEE7000088B0FFF772
:102FB0008DFDFDF767F902240020CDE9000440F6FD
:102FC000080AC4F2010A0AF5FF6001254FF4005116
:102FD00001220023FDF730FBCDE9005440F200440C
:102FE000C4F2000404F58230102100220023FDF712
:102FF00023FB4020C0F216000121FDF757FA4727B6
:10300000009742F60045C4F201052846002100223F
:1030100044F61F63FFF7CAFB0097284601210022F0
:1030200044F61F63FFF7C2FB0097284602210022E7
:1030300044F61F63FFF7BAFB0097284603210022DE
:1030400044F61F63FFF7B2FB00974FF0804000216A
:10305000002244F61F63FFF7A9FB00974FF0804062
:103060000121002244F61F63FFF7A0FB00974FF0F9
:1030700080400221012244F61F63FFF797FB00976F
:103080004FF080400321012244F61F63FFF78EFBBF
:1030900040F20020C0F230000121FDF707FA40F6AF
:1030A0000000C0F21A000121FDF700FA0097204647
:1030B0000021012244F61F63FFF778FB00972046AA
:1030C0000121012244F61F63FFF770FB00972046A1
:1030D0000221002244F61F63FFF768FB0097204699
:1030E0000321002244F61F63FFF760FB009704F5FD
:1030F000806630460021002244F61F63FFF756FB2E
:10310000009730460121002244F61F63FFF74EFB73
:10311000009730460221002244F61F63FFF746FB6A
:10312000009730460321002244F61F63FFF73EFB61
:10313000284600214FF47A72FFF7BEFB2846012192
:103140004FF4AF62FFF7B8FB284602214FF4E1626B
:10315000FFF7B2FB284603214FF4FA62FFF7ACFBFE
:103160004FF0804000214FF47A72FFF7A5FB4FF03B
:10317000804001214FF4AF62FFF79EFB4FF080408B
:1031800002214FF4E162FFF797FB4FF080400321EB
:103190004FF4FA62FFF790FB204600214FF47A7259
:1031A000FFF78AFB204601214FF4AF62FFF784FB53
:1031B000204602214FF4E162FFF77EFB2046032107
:1031C0004FF4FA62FFF778FB304600214FF47A7231
:1031D000FFF772FB304601214FF4AF62FFF76CFB43
:1031E000304602214FF4E162FFF766FB30460321CF
:1031F0004FF4FA62FFF760FB4FF4FA60FDF758F8FE
:1032000040F20408C2F2000898E88F00D8E905658A
:10321000D8E907CED8F82490CDE9007602AE86E84A
:103220002050CDF81490FDF721FC98E88F00D8E9E4
:103230000565D8E907CED8F82490CDE90076029547
:10324000CDF80CC0CDF810E0CDF81490FDF726FABB
:10325000002800F0388147F60045C0F6000540F22E
:10326000B407C2F20007284639460622FDF766F881
:10327000387888F816004046FEF7AAFADAF8000017
:10328000C00641F2100AC4F2010A00F1A680DAF881
:10329000000040F40050CAF800006420FDF708F870
:1032A000DAF8000040F00050CAF800006420FCF793
:1032B000FFFFDAF8000040F40050CAF80000642074
:1032C000FCF7F6FFDAF8000040F00050CAF8000002
:1032D0006420FCF7EDFFDAF8000040F40050CAF873
:1032E00000006420FCF7E4FFDAF8000040F0005032
:1032F000CAF800006420FCF7DBFF40F24C04C2F285
:1033000000042078FF2829D198E84F0008F1140E16
:103310009EE82050D8E908B9CDE90065CDE902CE94
:10332000CDE904B9FEF79EFB2070DAF8000040F406
:103330000050CAF800006420FCF7BAFFDAF8000079
:1033400040F00050CAF800006420FCF7B1FF20787C
:10335000FF28D9D047F60045C0F60005387028464A
:10336000FCF7B4FF284639460622FDF70BF8DAF8D9
:10337000000040F40050CAF800006420FCF798FFF9
:10338000DAF8000040F00050CAF800006420FCF7B2
:103390008FFFDAF8000040F40050CAF80000642003
:1033A000FCF786FFDAF8000040F00050CAF8000091
:1033B0006420FCF77DFFDAF8000040F40050CAF802
:1033C00000006420FCF774FFDAF8000040F00050C1
:1033D000CAF800006420FCF76BFF4FF47A70FCF72A
:1033E00067FFFFF7D7FD40F2BA0BC2F2000B40F2C5
:1033F0002C09C2F2000900BF98E8CF00D8E90654B2
:10340000D8E908CECDE90067CDE90254CDE904CE74
:10341000FDF7CEFA01282ED098E88F00D8E905658F
:1034200008F11C0E9EE81050CDE90076CDE902545B
:10343000CDE904CECDF818B040F2E007C2F20007A3
:103440000797FDF7EFFD98E88F00D8E9056508F1CB
:103450001C0E9EE81050CDE90076CDE90254CDE96E
:1034600004CEFDF765F958464946FDF7C5FAFEF763
:103470003DFFFFF78FFDFFF77FFDB0F5FA7FBBD96A
:1034800098E88F00D8E9056508F11C0E9EE81050F9
:10349000CDE90076CDE90254CDE904CEFDF7C8FEB2
:1034A000DAF8000040F40050CAF800003220FCF7BF
:1034B000FFFEDAF8000040F00050CAF800003220A9
:1034C000FCF7F6FE98E741F21004C4F2010400BFD5
:1034D000206840F4005020604FF47A70FCF7E8FE5A
:1034E000206840F0005020604FF47A70FCF7E0FE56
:1034F000EEE70A0B0C0D0E0F101112131415166EB9
:103500005246323400000000283500080000002038
:103510005000000028010008783500085000002005
:10352000980600004401000800A24A04003001404F
:1035300000000000000C014000200000000C0140D1
:1035400000100A202000057F3CE3E3E37E2CE3E348
:10355000E3000000DC05DC05DC05DC05DC05DC0542
:10356000DC05DC05DC05DC05DC05DC05DC05DC0553
:08357000DC05DC05FF00000092
:04000005080000ED02
:00000001FF
