:020000040800F2
:100000009806002089010008F51C0008A9030008D3
:10001000F11C000835020008DD2700080000000080
:10002000000000000000000000000000792200082D
:100030003902000800000000FD21000871230008BB
:10004000A3010008A3010008A3010008A301000800
:10005000A3010008A3010008A3010008A3010008F0
:10006000A3010008A3010008A3010008A3010008E0
:10007000A3010008A3010008A3010008A3010008D0
:10008000A3010008A3010008A3010008A3010008C0
:10009000A3010008A3010008A3010008A3010008B0
:1000A000A3010008A3010008A3010008A3010008A0
:1000B000A3010008A3010008A3010008A301000890
:1000C000A3010008A3010008A3010008A301000880
:1000D000A3010008A3010008A3010008A301000870
:1000E000A3010008A3010008A301000800F002F822
:1000F00000F03AF80AA090E8000C82448344AAF188
:100100000107DA4501D100F02FF8AFF2090EBAE885
:100110000F0013F0010F18BFFB1A43F0010318473B
:100120000029000020290000103A24BF78C878C1B7
:10013000FAD8520724BF30C830C144BF04680C60ED
:10014000704700000023002400250026103A28BF35
:1001500078C1FBD8520728BF30C148BF0B60704739
:100160001FB51FBD10B510BD00F031F81146FFF7E7
:10017000F7FF02F037FB00F04FF803B4FFF7F2FF90
:1001800003BC02F02DFB00000948804709480047E6
:10019000FEE7FEE7FEE7FEE7FEE7FEE7FEE7FEE737
:1001A000FEE7FEE704480549054A064B7047000094
:1001B00091230008ED000008980000209806002018
:1001C00098020020980200207047704770477546DB
:1001D00000F02CF8AE4605006946534620F00700B3
:1001E000854618B020B5FFF7DDFFBDE820404FF091
:1001F00000064FF000074FF000084FF0000BAC4630
:10020000ACE8C009ACE8C009ACE8C009ACE8C0097A
:1002100021F007018D46704710B50446AFF300800A
:100220002046BDE81040FFF7A8BF00000048704717
:1002300030000020FEE700007047000080B540F26B
:100240000000C2F2000000684DF68361C4F21B3169
:10025000A0FB0101880C02F073F800B1FEE7BDE8D5
:10026000804001F049BD000040F29401C2F200015B
:1002700000220A604FF47A72504300BF0A6882423B
:10028000FCD370472DE9F04391F803E00EF00F0C1A
:100290005FEACE6244BF8A784CEA020C09880A06FB
:1002A0001FD0036800224FF001094FF00F0800260D
:1002B00009FA06F70F420FD00CFA02F508FA02F419
:1002C000A3432B43BEF1480F04D0BEF1280F08BF53
:1002D000476101E0076100BF04320136082EE7D113
:1002E0000360B1F5807F38BFBDE8F083436800222A
:1002F0004FF480794FF00F08002600BF09FA06F787
:1003000007EA0105BD420FD10CFA02F508FA02F422
:10031000A3432B43BEF1480F04D0BEF1280F08BF02
:10032000476101E0076100BF04320136082EE5D1C4
:100330004360BDE8F0830000B0B50422C4F20102BE
:1003400002F1180E00281346B8BF73461B681FFA47
:1003500080FCC0F3034400F44015B5F5401F07D1FD
:10036000146824F07064146023F0706381B916E09F
:10037000C50206D46FF00F0404EA50440CFA04F4EA
:1003800002E0032505FA04F4A34343F0706331B19E
:100390006FF00F0101EA50410CFA01F10B43002804
:1003A000B8BF72461360B0BDFEE7000080B582B0F2
:1003B000ADF80410032A3DD8DFE802F002170C1351
:1003C000049941B302292AD0012904BF48218DF89C
:1003D00007102FE0012B0ED063BB18218DF80710FA
:1003E00028E000218DF8071024E005993BB1012B8E
:1003F00008D1142204E01C218DF807101AE0102205
:100400008DF8072079B1012911D0022904BF0321F9
:100410008DF806100EE004218DF807100AE028215F
:100420008DF8071006E002218DF8061002E0012188
:100430008DF8061001A9FFF725FF02B080BD00006E
:1004400010B5A0F18040A0F584304FEAB020062816
:1004500008D8DFE800F0040A0D1013161900012473
:10046000042014E00024204610BD012408200EE0E2
:10047000012410200BE00124202008E0012440206A
:1004800005E00124802002E001244FF48070012166
:1004900001F0C2FE204610BDF0B583B01C461546E3
:1004A0000E460746FFF7CCFF48B1DDE90810CDE95D
:1004B0000010384631462A462346FFF777FF03B03F
:1004C000F0BD000098B21169084310617047000048
:1004D000106940EA0340106170470000009801690C
:1004E000BDF80420114301617047000000980169C4
:1004F000019A41EA02410161704700002DE9F04F85
:1005000089B01C4615460E460746072006901798E8
:10051000059016980490DDF854B0CDF80CB0DDF8D5
:100520005080CDF80880DDF84C90CDF80490DDF8CF
:1005300048A0CDF800A0384600F0AEFC40F07000B6
:10054000CDE900A9CDE9028B16990491179905917F
:100550000721CDE90610384631462A46234601F0E8
:1005600055FA09B0BDE8F08F2DE9F04F89B01C466F
:1005700015460E460746DDE91632DDE91410DDE9C1
:100580001298DDF860A0BAF1060F0CD34FF0000C02
:100590004FF0010ECDE90098CDE90210CDE904320B
:1005A000CDE906EC1EE04FF0010BCDE90098CDE956
:1005B0000210CDE90432CDF818B0384631462A464B
:1005C000234600F069FC0BFA0AF18843CDE9009854
:1005D0001499029115990391169904911799CDE9EF
:1005E000051B0790384631462A46234601F00EFA8D
:1005F00009B0BDE8F08F000080B588B04FF0FF0C67
:10060000CDF81CC04FF0E20CCDF818C0DDF83CC0AE
:10061000CDF814C0DDF838C0CDF810C0DDF834C016
:10062000CDF80CC0DDF830C0CDF808C0DDF82CC026
:10063000CDF804C0DDF828C0CDF800C001F0E6F91F
:1006400008B080BD80B588B04FF0FF0CCDF81CC05D
:100650004FF0E10CCDF818C0DDF83CC0CDF814C067
:10066000DDF838C0CDF810C0DDF834C0CDF80CC0CE
:10067000DDF830C0CDF808C0DDF82CC0CDF804C0DE
:10068000DDF828C0CDF800C001F0C0F908B080BD89
:100690002DE9F04F87B01C4615460E4607461598C3
:1006A000059014980490DDF84C80CDF80C80DDF8AE
:1006B0004890CDF80890DDF844A0CDF804A0DDF80E
:1006C00040B0CDF800B03846FFF710FF6020CDE90C
:1006D00000BACDE90298149904911599CDE9051055
:1006E000384631462A46234600F0BCFAFF20CDE9C1
:1006F00000BACDE90298149904911599CDE9051035
:10070000384631462A46234600F0ACFA8046CDE909
:1007100000BACDF808901398039014980490159897
:100720000590384631462A462346FFF7D7FE404615
:1007300007B0BDE8F08F000080B588B04FF0170C0F
:10074000CDF818C0DDF83CC0CDF814C0DDF838C0D5
:10075000CDF810C0DDF834C0CDF80CC0DDF830C0E5
:10076000CDF808C0DDF82CC0CDF804C0DDF828C0F5
:10077000CDF800C000F090FB00F0030008B080BD91
:100780002DE9F04F89B01C4615460E46074602205B
:10079000012100914FF0010B01904FF002091398D5
:1007A00081B2824612984FF0000801220023FFF721
:1007B00073FECDE900B9A1B2284601220023FFF75C
:1007C0006BFEF1B2384601F0F9F90820CDE9068058
:1007D0001798059016980490DDF85480CDF80C8099
:1007E000DDF850B0CDF808B0D146CDF804A0DDF862
:1007F00048A0CDF800A0384631462A46234601F0ED
:1008000005F93F21CDE900A9CDE902B8DDF85890FE
:10081000CDF81090179805900120CDE906013846D3
:1008200031462A46234601F0F1F8CDF800A013988E
:10083000CDE9010BCDF80C80C346CDF81090DDF862
:100840005C80CDF81480022006903F200790384647
:1008500031462A46234601F0D9F84FF0030A129890
:100860000090139801901498CDE9020BCDE90498FB
:10087000CDE906AA384631462A46234601F0C6F895
:10088000042012990091139901911499CDE9021B4A
:10089000CDE90498CDE9060A384631462A46234672
:1008A00001F0B4F8052012990091DDF84CA0CDF8C4
:1008B00004A01499CDE9021BCDE90498069002200A
:1008C0000790384631462A46234601F09FF80E200D
:1008D0000621DDF848B0CDE900BA149A0292DDF89D
:1008E0005490CDF80C90169ACDE90428CDE9061065
:1008F000384631462A46234601F088F80720CDE9DC
:1009000000BA1499CDE902191699CDE90418069098
:1009100000200790384631462A46234601F076F8F3
:100920001120CDE900BAD3461499CDE90219CA467F
:10093000DDF85890CDE904980690002007903846DD
:1009400031462A46234601F061F812201299CDE97A
:10095000001B1499CDE9021ACDE9049806900020F5
:100960000790384631462A46234601F04FF81320B7
:100970001299CDE9001B1499CDE9021ACDE904982A
:10098000069000200790384631462A46234601F05B
:100990003DF814201299CDE9001B1499CDE9021AF3
:1009A000CDE90498069000200790384631462A4643
:1009B000234601F02BF815201299CDE9001B14995C
:1009C000CDE9021ACDE90498069000200790384638
:1009D00031462A46234601F019F816201299CDE92E
:1009E000001B1499CDE9021ACDE904980690002065
:1009F0000790384631462A46234601F007F81C2066
:100A00001299CDE9001B1499CDE9021ACDE9049899
:100A1000C146069000200790384631462A462346B4
:100A200000F0F4FF1D201299CDE9001B1499CDE9C7
:100A3000021ADDF85880CDE904890690002007905D
:100A4000384631462A46234600F0E0FF1298CDE9A9
:100A5000000B1498CDE9020ACDE9048938463146E5
:100A60002A462346FFF7C8FD1298CDE9000B1498DB
:100A7000CDE9020A1698CDE90409C8463846314640
:100A80002A462346FFF7DEFD1298CDE9000B1498A5
:100A9000CDE9020ADDF85890CDE904983846314690
:100AA0002A462346FFF72AFDDDF84880CDE9008B72
:100AB0001498CDE9020AD346CA46CDF81090DDF865
:100AC0005C90CDF81490384631462A462346FFF70D
:100AD00005FDCDF80080139801901498CDE9020B24
:100AE000CDE904A9384631462A462346FFF7F0FCF3
:100AF00009B0BDE8F08F00002DE9F04F87B01C462B
:100B000015460E4607461598059014980490DDF892
:100B10004CA0CDF80CA0DDF848B0CDF808B0119885
:100B200001908046DDF84090CDF800903846FFF700
:100B3000CFFCCDE90098C146CDE902BAD046149861
:100B40000490DDF854A0CDF814A0384631462A466A
:100B50002346FFF751FD10988DE8010ACDF80C806F
:100B6000C146DDF85080CDE9048A384631462A4630
:100B70002346FFF7C3FC0120109900911199CDE99C
:100B8000011BCDE90398CDE905A0384631462A4638
:100B9000234600F011FB109800901198CDE9010B4D
:100BA000CDE90398CDF814A0384631462A462346AD
:100BB000FFF788FC07B0BDE8F08F00002DE9F04F8B
:100BC00087B01C4615460E460746159805901498A2
:100BD0000490DDF84CA0CDF80CA0DDF848B0CDF8BD
:100BE00008B0119801908046DDF84090CDF8009053
:100BF0003846FFF76DFCCDE90098CDE902BAD04642
:100C000014980490DDF854A0CDF814A0384631466D
:100C10002A462346FFF716FDCDF800901198CDE93E
:100C2000010BCDF80C801498CDE9040A3846314602
:100C30002A462346FFF762FC0020CDF80090119968
:100C4000CDE9011BCDF80C801499CDE9041A06906A
:100C5000384631462A46234600F0AEFA07B0BDE8D2
:100C6000F08F0000069900F0D1BF00002DE9F04F91
:100C700087B01C4615460E460746159805901498F1
:100C80000490DDF84CA0CDF80CA0DDF848B0CDF80C
:100C900008B0DDF84480CDF80480DDF84090CDF850
:100CA00000903846FFF722FC1698CDE90098CDE970
:100CB00002BA1499049115998946CDE90510384670
:100CC00031462A462346FFF7CDFFDDF860A0BAF192
:100CD000000F1DD0DDF85CB04FF0FF0810980090B9
:100CE0001198019012980290139803901498CDE9EE
:100CF0000409CDF81880384631462A462346FFF7C6
:100D0000B1FF0BF8010BAAF1010A5FEA0A60E5D115
:100D100010980090119801901298029013980390E7
:100D20001498CDE90409384631462A462346FFF790
:100D3000D5FB07B0BDE8F08F80B58AB04FF0000C4E
:100D4000CDF820C0DDF84CC0CDF81CC0DDF848C09F
:100D5000CDF818C0DDF844C0CDF814C0DDF840C0AF
:100D6000CDF810C0DDF83CC0CDF80CC0DDF838C0BF
:100D7000CDF808C0DDF834C0CDF804C0DDF830C0CF
:100D8000CDF800C000F002F80AB080BD2DE9F04FA8
:100D900089B0984615460E460746072006901798D4
:100DA0000590169804901598039014980290DDF819
:100DB0004CA0CDF804A0DDF848B0CDF800B038461E
:100DC00000F06AF8C0F34204DDF86490052C2CD8DA
:100DD0001A9878B3CDE900BA149802901598039048
:100DE0001698049017980590384631462A4643468F
:100DF000FFF74EFC89F80000212814D3002089F861
:100E00000000CDE900BA1498029015980390169846
:100E1000049017980590384631462A464346FFF716
:100E2000EBFB99F80000F0B932E0002089F80000EF
:100E3000FF242DE042F61920C0F60000005DCDE948
:100E400000BA149902911599039116990491179972
:100E5000CDE90510384631462A46434600F01CF8D5
:100E600089F80000A0B1189908906120CDE900BA76
:100E7000149A0292159A0392169A0492179ACDE93F
:100E800005200791384631462A464346FFF7EEFED5
:100E9000204609B0BDE8F08F2DE9F04F87B01C4621
:100EA00015460E4607461598059014980490DDF8EF
:100EB0004C80CDF80C80DDF84890CDF80890DDF836
:100EC00044A0CDF804A0DDF840B0CDF800B038461D
:100ED000FFF70CFB169800F01F00CDE900BACDE932
:100EE0000298149904911599CDE9051038463146B8
:100EF0002A462346FFF7B6FEFF20CDE900BACDE92A
:100F00000298149904911599CDE905103846314697
:100F10002A462346FFF7A6FE8046CDE900BACDF863
:100F200008901398039014980490159805903846EB
:100F300031462A462346FFF7D1FA404607B0BDE8BE
:100F4000F08F00002DE9F04F89B01546189A062A57
:100F500022D81C460E460746DDE912A91999012040
:100F6000904010F03C0F1AD00878079042F61220FB
:100F7000C0F60000805C0690CDE900A914980290AC
:100F800015980390169804901798059038463146A6
:100F90002A46234600F03AFD09B0BDE8F08F032051
:100FA000CDE900A91499029115990391DDF858B083
:100FB000CDF810B0DDF85C80CDE9058038463146CB
:100FC0002A462346FFF768FF0890CDE900A9149848
:100FD00002901598CDE9030BCDF8148038463146C0
:100FE0002A462346FFF782FA42F61220C0F6000096
:100FF0001899405C40F02000CDE900A914990291B5
:101000001599CDE9031BCDE90580384631462A46BE
:101010002346FFF727FE089800F101085FFA88F0E1
:10102000199901EB000B00BF1BF80109CDE900A9DC
:101030001499029115990391169904911799CDE984
:101040000510384631462A462346FFF70BFEA8F125
:1010500001005FEA08618046E6D1CDE900A9149855
:1010600002901598039016980490179805903846AA
:1010700031462A462346FFF731FA09B0BDE8F08F22
:1010800080B588B04FF0030CCDF818C0DDF83CC037
:10109000CDF814C0DDF838C0CDF810C0DDF834C08C
:1010A000CDF80CC0DDF830C0CDF808C0DDF82CC09C
:1010B000CDF804C0DDF828C0CDF800C0DDF840C090
:1010C000ACF1020C5FFA8CFCCDF81CC000F09EFC69
:1010D00008B080BD2DE9F04F89B01C4615460E467C
:1010E0000746002006901798059016980490DDF8A2
:1010F00054B0CDF80CB0DDF85080CDF80880DDF8A4
:101100004C90CDF80490DDF848A0CDF800A038460A
:10111000FFF7C2FE00F0F300189901F00C0108443B
:10112000CDE900A9CDE9028B169904911799059193
:101130000021CDE90610384631462A46234600F004
:1011400065FC09B0BDE8F08F2DE9F04F89B01C4671
:1011500015460E46074606200690179805901698E5
:101160000490DDF854B0CDF80CB0DDF85080CDF827
:101170000880DDF84C90CDF80490DDF848A0CDF85B
:1011800000A03846FFF788FE00F0D7001899084302
:10119000CDE900A9CDE9028B169904911799059123
:1011A0000621CDE90610384631462A46234600F08E
:1011B0002DFC09B0BDE8F08F2DE9F04F89B01C4639
:1011C00015460E460746002006901798059016987B
:1011D0000490DDF854B0CDF80CB0DDF85080CDF8B7
:1011E0000880DDF84C90CDF80490DDF848A0CDF8EB
:1011F00000A03846FFF750FE00F0FE00189901F0FD
:1012000001010844CDE900A9CDE9028B16990491AA
:10121000179905910021CDE90610384631462A4636
:10122000234600F0F3FB09B0BDE8F08F2DE9F04F45
:1012300089B01C4615460E460746002006901798B2
:10124000059016980490DDF854B0CDF80CB0DDF898
:101250005080CDF80880DDF84C90CDF80490DDF892
:1012600048A0CDF800A03846FFF716FE00F0FD01BB
:10127000189A022A08BF40F00201CDE900A9CDE981
:10128000028B16980490179805900020CDE906016E
:10129000384631462A46234600F0B8FB09B0BDE87F
:1012A000F08F000080B588B0DDF840C0CDF81CC0DC
:1012B0004FF0050CCDF818C0DDF83CC0CDF814C0D7
:1012C000DDF838C0CDF810C0DDF834C0CDF80CC062
:1012D000DDF830C0CDF808C0DDF82CC0CDF804C072
:1012E000DDF828C0CDF800C000F090FB08B080BD4C
:1012F0002DE9F04F89B01C4615460E4607460220E0
:101300000690179805901698049015980390DDF8AC
:101310005080CDF80880DDF84C90CDF80490DDF8D1
:1013200048B0CDF800B03846FFF7B6FD189A012155
:1013300001FA02FA40EA0A0000F03F00CDE900B9E4
:10134000CDF8088015990391DDF85880CDF810800C
:10135000179905910221CDE90610384631462A46F3
:10136000234600F053FB1A9800F03F00079042F626
:101370001920C0F600001899405C06901798CDE936
:1013800004801598039014980290CDE900B938466E
:1013900031462A46234600F039FBCDE900B9DDF895
:1013A0005080CDF8088015980390DDF858B0CDF83E
:1013B00010B0DDF85C80CDF814804FF00109CDF855
:1013C0001890384631462A462346FFF765FDCDF88A
:1013D0001890CDE904B815990391149902911399C5
:1013E00001911299009120EA0A01199A012A08BF75
:1013F00040EA0A01C8B20790384631462A462346D9
:1014000000F004FB09B0BDE8F08F00002DE9F04FBB
:1014100089B01C4615460E460746062006901798CA
:10142000059016980490DDF854B0CDF80CB0DDF8B6
:101430005080CDF80880DDF84C90CDF80490DDF8B0
:1014400048A0CDF800A03846FFF726FD00F0F900CF
:1014500018990843CDE900A9CDE9028B16990491AA
:10146000179905910621CDE90610384631462A46DE
:10147000234600F0CBFA09B0BDE8F08F2DE9F04F1C
:101480009FB0834600680BF104078ECFDBE905654A
:10149000DBF81C401A960DF1540C8CE88F00DBE948
:1014A0000801CDE91D01CDE91B549DF8790010B16B
:1014B0001FB0BDE8F08F15981490DDE916120B925D
:1014C000189B1293DDE91996DDE91B74DDE91DEA2D
:1014D0004FF0FF0CCDF84490CDE90096B04613963E
:1014E000CDE902747646CDE904EACDE90CEACDF8FF
:1014F00018C00D46FFF738F89DF86A00CDE900984E
:101500000297B9460F9403A981E8500406901498F5
:1015100029462E4610950B9F3A46DDF848804346F3
:10152000FFF7C0FE9DF86B00119900918A46139950
:10153000CDE9011903940C9D04950D9CCDE905405E
:10154000149831463A464346FFF7FEFD0C20CDF88D
:1015500000A0139901914E46CDF83890CDF808902F
:10156000DDF83C90CDE90395CDE905401498109F36
:101570003946DDF82CA052464346FFF7ABFD9DF8F7
:101580006E00119D0095139901AA82E842024E4611
:10159000DDF83090CDE9049406901498394652460F
:1015A0004346FFF76DFD15A800F11B010A910620C7
:1015B0000095DDF84C80CDF804800E9FCDE90276D1
:1015C000CDE90494CDE906011498109E31465246A7
:1015D000129D2B46FFF7B6FC00211198CDE90008BB
:1015E00002970F9FCDE90379CDE905410A9807904D
:1015F000DDF8508040463146524654462B46FFF7B0
:10160000A1FC15A820300121119D0095139E019683
:101610000E9A02AB83E88402DDF834A0CDE905A17F
:1016200007904046DDF8408041462246129BFFF776
:1016300089FC9DF86C000890CDE900560E9F02973A
:101640000F9C03A880E81006012006900020079058
:1016500014984146DDF82C804246DDF848A05346F8
:10166000FFF746FE9DF86D008DE8E000CDE90349E7
:101670000D99CDE90510149C204610994246534619
:10168000FFF7C4FE0095A946CDE901673E46DDF8A7
:101690003C80CDF80C800C9804900D9D05950120A0
:1016A00006902046DDF840A051460B9F3A46129C1A
:1016B0002346FFF781FD0220CDF80090DDF84C9025
:1016C000CDE90196CDF80C80DDF83080CDE90485B8
:1016D0000690149E304651463A462346FFF7A6FD33
:1016E0003220FEF7C1FD1198CDE900090E98029055
:1016F0000F98CDE903080595304651463A462346F2
:10170000FEF7E0FE01208BF825001FB0BDE8F08F4A
:101710002DE9F04F93B0994617460E4680460420B7
:101720008DF8480040F2AA10C0F202301190052056
:101730008DF843000020069021980590209C049489
:101740001F9D0395DDF878A0CDF808A01D980190A5
:10175000DDF870B0CDF800B04046FFF767FD05201A
:10176000089021990120CDF800B01D9ACDE9012AF9
:10177000CDE9035405918B46069000200790404622
:1017800031463A464B46FFF7B3FD02201C990091C3
:101790001D99CDE9011ACDE90354CDE905B04046C4
:1017A00031463A464B46FFF741FD40465946002236
:1017B000DDE91C8B0023CDE90B300DAB83E8C002C3
:1017C0000CE000BF0B9801300B90DDF88490494687
:1017D000DDF83C900C98DDF878A00022CDE9008B74
:1017E000CDE902A5CDE90441069231463A464B4681
:1017F000FFF71CFD0120FEF737FD0B98C0B2CDE9C5
:10180000008BCDE902A50494DDF884A00A90CDE90F
:1018100005A00C9831463A464B46FFF743FD0120A0
:10182000FEF722FDCDE9008BD846DDF878B0CDE992
:1018300002B5CDE9044A02200690DDF830A05046FA
:1018400031463A464B46FFF7F1FC0120FEF70CFD0E
:101850001C988DE80109CDE90354DDF884B0CDF87A
:1018600014B0504631463A464B46FFF7A7F90120DF
:10187000FEF7FAFC1C98CDE900081E98CDE9020598
:10188000CDE9044B504631463A464B46FFF734F912
:101890004FF0310A1C980090DDF87480CDF8048078
:1018A000DDF87890CDE902950494A846DDF884B07F
:1018B000CDF814B00C9D284631463A460F9BFEF7F2
:1018C0003BFF012830D01C9800901D9801901E9875
:1018D0000290C146CDF80C80209C0494219805907C
:1018E00011A806900DF14300079028460D9E314641
:1018F0000E9F3A46DDF83CB05B46FFF71DFA1C9898
:1019000000901D9801901E98CDE90208049421983A
:101910000590284631463A465B462E46FEF7EEFDD8
:101920009DF84400F02814D00120FEF79DFCAAF198
:1019300001005FEA0A418246209C4546DDE90D67C9
:10194000A8D10A987D28DDE91C8B7FF43BAFFF20EE
:1019500058E0DDF870A0CDF800A01D980190DDF8EA
:1019600078A0CDF808A04546CDF80C80209C0494C2
:10197000DDF88480CDF814803046DDF834B0594667
:101980000E9F3A46DDF83C904B46FFF7B5F8002035
:10199000DDF87080CDF80080DDF874A0CDF804A0EB
:1019A0001E99CDE9021504942199CDE90510304620
:1019B00059463A464B46FFF739FC1E99C8B2089083
:1019C0000120CDE9008ACDE9021504942199CDE9E1
:1019D000051000200790304659463A464B46FFF71F
:1019E00087FC0220CDE9008A1E99CDE902150494F6
:1019F0002199CDE90510304659463A464B46FFF746
:101A000015FC0B98C0B213B0BDE8F08F2DE9F04F74
:101A100087B01C4615460E460746DDF854B0CDF893
:101A200014B0DDF85080CDF81080DDF84C90CDF882
:101A30000C901298029011980190109800903846DE
:101A4000FEF754FDDDF858A0BAF11F0F27D801208A
:101A500060F35F1A10980090119801901298CDE9E8
:101A60000209CDE9048BCDF818A0384631462A4644
:101A70002346FFF7F7F810980090119801901298FC
:101A8000CDE90209CDE9048B179806903846314616
:101A90002A462346FFF7E6F8A246129C2EE010984D
:101AA0000090119801901298CDE90209CDE9048BBC
:101AB000CDF818A0384631462A462346FFF7D2F81B
:101AC000AAF1E1001E28A246129C07D8012101FAC2
:101AD00000F00721C4F2000108420FD110980090D5
:101AE000119801A981E81102CDE9048B179806909D
:101AF000384631462A465346FFF7B4F8109800900E
:101B0000119801A981E81102CDE9048B38463146CC
:101B10002A465346FEF7E2FC07B0BDE8F08F00000E
:101B200080B582B001280DD000281CBF02B080BD56
:101B300002200021CDE9001040F60000C4F20100AF
:101B4000E0210AE002200021CDE9001040F600006B
:101B5000C4F2010000F58060382102220023FEF764
:101B60009BFC02B080BD000070B582B0012815D08A
:101B700010BB02250026CDE9006540F60044C4F202
:101B8000010420464FF4806102220023FEF784FC0A
:101B9000CDE9006504F580600C2109E002200021F8
:101BA000CDE9001040F60040C4F201004FF460415E
:101BB00002220023FEF770FC02B070BD80B582B037
:101BC00043F60002C4F2000290420FD043F2000339
:101BD000C4F2010398421CBF02B080BD00204FF444
:101BE0008273CDE9003002F5784008E000204FF420
:101BF0008272CDE9002043F60000C4F2000000220A
:101C0000202300F01BF802B080BD000002885206BD
:101C10005EBF0020C0B2704702899207FCD00289E3
:101C20001206F9D4818100BF01898907FCD001899E
:101C30000906F9D48089C0B2704700002DE9F0434D
:101C400085B01E4615460F460446684600F00CFB5C
:101C5000DDE90C8943F60000C4F2000084420ED096
:101C600043F20000C4F20100844213D14FF48050CB
:101C7000012100F0D1FA3846FFF752FF07E04FF498
:101C80008040012100F0BCFA3846FFF76DFF0020CC
:101C9000ADF80400ADF80E900020ADF80000ADF8EE
:101CA0000C604FF40071ADF80A10ADF80280032DFE
:101CB0000FD80021DFE805F0090205070121002007
:101CC00003E0002100E001210220ADF80810ADF88A
:101CD0000600208820F0400020806946204600F061
:101CE000A7FA208840F04000208005B0BDE8F083CE
:101CF000FEE70000704700004EF62350CEF20000D1
:101D0000F02101707047000080B582B041F60302F7
:101D1000ADF80620032866D8DFE800F002180D238E
:101D200001292ED000295ED10420012100F074FA8F
:101D30004FF480701EE001292AD0002953D10420DD
:101D4000012100F069FA4FF4806013E0012926D0E8
:101D5000002948D10420012100F05EFA4FF4007000
:101D600008E001292ED0F1BB0420012100F054FA33
:101D70004FF40060ADF8040040F60000C4F201002A
:101D80001BE04020012100F047FA4FF400700CE006
:101D90004020012100F040FA4FF4005005E04020BF
:101DA000012100F039FA4FF48060ADF8040040F6EC
:101DB0000000C4F2010000F5805001A9FEF762FAAC
:101DC00002B080BD4020012100F026FA4FF480408F
:101DD000ADF8040040F60000C4F2010000F58050A8
:101DE00001A9FEF74FFA02B080BD000010B582B025
:101DF00041F60302ADF80620032852D8DFE800F0D0
:101E00000210192202294ED0012953D0002948D1AD
:101E100001240520012100F0FFF9ADF8044050E055
:101E2000012918D0E9BB0520012100F0F5F90220B5
:101E300045E0012915D0A1BB0520012100F0ECF9F6
:101E400004203CE001291BD059BB0520012100F0F2
:101E5000E3F9082033E00920012100F0DDF9082032
:101E600005E00920012100F0D7F94FF48060ADF8BA
:101E7000040040F60000C4F2010000F5806024E098
:101E80000920012100F0C8F94FF40060ADF804000A
:101E900040F60000C4F2010000F5806001A9FEF7E1
:101EA000F1F902B010BD0520012100F0B5F94FF4A1
:101EB000004004E00520012100F0AEF92020ADF83B
:101EC000040040F60000C4F2010001A9FEF7DAF9AF
:101ED00002B010BDB0B582B00C460546012001210C
:101EE00000F09AF941F60300ADF80600032D56D82C
:101EF000DFE805F0020E222D022C52D0012C56D024
:101F0000002C4CD10520012100F086F940200AE088
:101F1000022C52D0012C5ED0002C40D10520012192
:101F200000F07AF98020ADF8040040F60040C4F2D9
:101F30000100A0F5806059E0012C11D07CBB012488
:101F40000920012100F068F9ADF804404AE0012CB5
:101F50000DD024BB0920012100F05EF902203FE0F2
:101F60001120012100F058F94FF480702AE011206F
:101F7000012100F051F942F20000C0F220000121DD
:101F8000FEF7DAF94FF40070ADF8040040F60040B7
:101F9000C4F2010000F5806001A9FEF773F902B0F8
:101FA000B0BD1120012100F037F940200AE00920DE
:101FB000012100F031F9102012E01120012100F080
:101FC0002BF98020ADF8040040F60040C4F2010077
:101FD00000F580600AE00920012100F01DF92020B1
:101FE000ADF8040040F60040C4F2010001A9FEF77C
:101FF00049F902B0B0BD000080B582B041F60302DD
:10200000ADF80620032864D8DFE800F002170C21A1
:1020100001292CD000295CD10820012100F0FCF816
:1020200040201DE0012929D0002952D1082001219A
:1020300000F0F2F84FF4807012E0012925D0002959
:1020400047D10820012100F0E7F8802008E00129AD
:102050002ED0F1BB0820012100F0DEF84FF4007013
:10206000ADF8040040F60040C4F201001BE020205F
:10207000012100F0D1F84FF480500CE02020012124
:1020800000F0CAF84FF4804005E02020012100F064
:10209000C3F84FF40050ADF8040040F60040C4F21D
:1020A000010000F5006001A9FEF7ECF802B080BD68
:1020B0002020012100F0B0F84FF40040ADF80400FA
:1020C00040F60040C4F2010000F5006001A9FEF7EF
:1020D000D9F802B080BD0000F0B583B01D461646A9
:1020E0000F4604460120012100F096F820463946AB
:1020F000324600F025F800208DF80800ADF8060003
:10210000ADF80450ADF802000898ADF8000069463B
:10211000204600F00DFB2046394600F0C5F9204668
:10212000012100F0A1F942F60040C4F201000121B2
:1021300000F0AEF92046012100F0A0F903B0F0BD97
:10214000B0B514460D4640F2FF71C4F2000188425A
:1021500012DCB0F1804F27D040F20041C4F2000100
:10216000884235D10220012100F04AF82846214654
:10217000BDE8B040FFF7AEBE40F60001C4F200017A
:1021800088421BD042F60041C4F20101884218BFC8
:10219000B0BD4FF40060012100F03EF82846214612
:1021A000BDE8B040FFF7B0BD0120012100F028F8E4
:1021B00028462146BDE8B040FFF718BE04200121A3
:1021C00000F01EF828462146BDE8B040FFF714BFD6
:1021D000B0BD0000032988BF7047DFE801F0020BA3
:1021E0000508114600F09ABA114600F09BBA114654
:1021F00000F09ABA114600F093BA00007047000050
:1022000041F21C02C4F20202002911680CBF21EA4B
:10221000000008431060704741F21802C4F2020245
:10222000002911680CBF21EA0000084310607047C4
:1022300002880B8802F441521A434B881A438B8858
:102240001A43CB881A430B891A434B891A438B894B
:102250001A43CB891A430280828B22F40062828364
:10226000098A0182704700000021C16081604160DD
:10227000016007210182704770470000AFF30080C2
:1022800082B000200190009041F20400C4F20200EC
:1022900050F8041C41F4803140F8041C50F8041C30
:1022A00001F400310091019901310191009919B9AE
:1022B0000199B1F5A06FF1D150F8041C890354BF06
:1022C0000021012100910099012936D142F200013B
:1022D000C4F202010A6842F010020A600A6822F0A1
:1022E00003020A600A6842F002020A6001680160A3
:1022F00001680160016841F480610160016821F4B6
:102300007C110160016841F4E811016050F8041C7F
:1023100041F0807140F8041C50F8041C8901FBD581
:10232000016821F003010160016841F002010160D0
:10233000016801F00C010829FAD102B070470000D1
:10234000B0B50024B4EB106F1EBF01242046B0BD11
:1023500020F07F4001384EF21005CEF20005686093
:10236000FFF7CAFCAC60072028602046B0BD000023
:1023700040F29400C2F2000001680131016040F2B5
:102380009000C2F200000168013101607047000056
:1023900080B541F20000C4F20200016841F0010181
:1023A000016041680022CFF6FF02114041600168E0
:1023B0004FF6FF72CFF6F66211400160016821F41A
:1023C00080210160416821F4FE0141604FF41F014A
:1023D0008160FFF753FF4EF60850CEF200004FF039
:1023E0000061016080BD000041F20400C4F20200FF
:1023F00050F8041C41F4803140F8041C50F8041CCF
:102400008903FBD5816941F08051816142F200016D
:10241000C4F202010A6842F022020A60016841F433
:1024200080310160016841F4E0110160016821F42C
:1024300000510160016841F480610160016821F090
:102440008001016050F8041C41F0807140F8041CC8
:1024500050F8041C8901FBD5016841F002010160BC
:1024600001680907FCD57047028842F08003002903
:1024700008BF22F08003038070470000028842F00A
:102480000103002908BF22F0010303807047000008
:10249000B0F8442013466FF3DF33002918BF42F42D
:1024A0000043A0F84430704710B584B004460020C3
:1024B000ADF808006020C0F201000090032929D87F
:1024C000DFE801F0020C16206946204600F024F8EF
:1024D0002046082100F05AF804B010BD6946204695
:1024E00000F05AF82046082100F094F804B010BD1E
:1024F0006946204600F096F82046082100F0D0F802
:1025000004B010BD6946204600F0D0F820460821EE
:1025100000F0FCF804B010BD10B5028C22F00102EE
:102520000284048CB0F804E0038B0A8823F0730360
:1025300043EA020C24F002020B891A434B881A4327
:10254000A0F18043A3F596334FEAB323072B14D8A9
:10255000012404FA03F313F0E50F0ED02EF44073B8
:102560008C892343CC8943EA040E22F00C024B8968
:1025700023F004031A438B881A43A0F804E0A0F860
:1025800018C0C9888186028410BD0000028B22F029
:10259000080211430183704710B5028C22F010022B
:1025A0000284048CB0F804E0038B0A8823F4E64329
:1025B00043EA022C24F020020B8942EA03124B88E2
:1025C00042EA031243F20043C4F20103984205D0E9
:1025D00042F60043C4F20103984212D18B892EF4D3
:1025E000406444EA8303CC8943EA840E4B896FF04C
:1025F000400404EA031322F0C0021A438B8842EA23
:102600000312A0F804E0A0F818C0C988018702846A
:1026100010BD0000028B22F4006242EA0121018316
:102620007047000010B5028C22F480720284048C82
:10263000B0F804E0838B0A8823F0730343EA020CAA
:1026400024F400720B8942EA03224B8842EA0322F7
:1026500043F20043C4F20103984205D042F600431E
:10266000C4F20103984212D18B892EF4405444EAFB
:102670000313CC8943EA041E4B891B0240F2FF443A
:10268000A34322F440621A438B8842EA0322A0F853
:1026900004E0A0F81CC0C9888187028410BD000036
:1026A000828B22F0080211438183704710B5028C9F
:1026B00022F480520284048CB0F804E0828B0B88F0
:1026C00022F4E64242EA032C24F400520B8942EA47
:1026D00003324B8842EA033343F20042C4F2010260
:1026E000904205D042F60042C4F20102904204D169
:1026F0008A892EF4804444EA821EA0F804E0A0F8FF
:102700001CC0C988A0F84010038410BD828B22F43D
:10271000006242EA01218183704700008186704790
:102720000187704781877047A0F84010704700000C
:10273000B0F800C040F6FF33C4F2000398420FDC4B
:10274000B0F1804F1ED040F20043C4F20003984223
:1027500018D040F60003C4F20003984212D016E0ED
:1027600040F60043C4F2000398420BD043F200430A
:10277000C4F20103984205D042F60043C4F20103BB
:10278000984204D12CF070024B8843EA020C40F4CA
:10279000806341F20042C4F20002934204D02CF460
:1027A0004072CB8843EA020CA0F800C08A88828578
:1027B0000A880285A0F18042A2F596324FEAB22241
:1027C000072A07D8012303FA02F212F0E50F1CBF13
:1027D000097A01860121818270470000FEE700002E
:1027E000FEE7000086B0FFF7FFFDFDF727FD0220A2
:1027F0000021CDE9001040F20044C4F2000404F5C9
:1028000086304FF4005101220023FDF745FE472694
:1028100000964FF080400021002244F61F63FFF72E
:102820005BFC00964FF080400121002244F61F63BC
:10283000FFF752FC00964FF080400221002244F640
:102840001F63FFF749FC00964FF0804003210022F0
:1028500044F61F63FFF740FC00962046002100224B
:1028600044F61F63FFF738FC009620460121002242
:1028700044F61F63FFF730FC009620460221002239
:1028800044F61F63FFF728FC009620460321002230
:1028900044F61F63FFF720FC009604F58065284688
:1028A0000021002244F61F63FFF716FC009628461D
:1028B0000121002244F61F63FFF70EFC0096284614
:1028C0000221002244F61F63FFF706FC009628460B
:1028D0000321002244F61F63FFF7FEFB4FF0804008
:1028E000002142F20F72FFF775FC4FF0804001218A
:1028F00042F20F72FFF76EFC4FF08040022142F26D
:102900000F72FFF767FC4FF08040032142F20F7215
:10291000FFF760FC2046002142F20F72FFF75AFCDD
:102920002046012142F20F72FFF754FC204602219B
:1029300042F20F72FFF74EFC2046032142F20F7263
:10294000FFF748FC2846002142F20F72FFF742FCD5
:102950002846012142F20F72FFF73CFC2846022173
:1029600042F20F72FFF736FC2846032142F20F7243
:10297000FFF730FC40F20404C2F2000494E84F0078
:1029800004F1140E9EE82050D4E90878CDE90065E2
:10299000CDE902CECDE90478FDF7F2FE2046FEF740
:1029A0006DFD94E88F00D4E90565D4E907CE646A2B
:1029B000CDE900760295CDF80CC0CDF810E0059475
:1029C000FEF7A6FE41F21004C4F20104FF2811D064
:1029D000206840F4005020604FF47A70FDF744FC0A
:1029E000206840F0005020604FF47A70FDF73CFC06
:1029F000EEE700BF206840F4005020603220FDF771
:102A000033FC206840F0005020603220FDF72CFCA1
:102A1000F0E70A0B0C0D0E0F10111213141516000F
:102A2000402A0008000000203000000028010008B3
:102A3000702A0008300000206806000044010008E9
:102A400000A24A040030014001000000000C0140D7
:102A500000100000000C014000200A202000057F2B
:102A60003CE3E3E37E2CE3E3E3000000000000002E
:04000005080000ED02
:00000001FF
